{
	"contracts/TokenBurn.sol": {
		"Token": {
			"abi": [
				{
					"inputs": [],
					"stateMutability": "nonpayable",
					"type": "constructor"
				},
				{
					"anonymous": false,
					"inputs": [
						{
							"indexed": true,
							"internalType": "address",
							"name": "owner",
							"type": "address"
						},
						{
							"indexed": true,
							"internalType": "address",
							"name": "spender",
							"type": "address"
						},
						{
							"indexed": false,
							"internalType": "uint256",
							"name": "value",
							"type": "uint256"
						}
					],
					"name": "Approval",
					"type": "event"
				},
				{
					"anonymous": false,
					"inputs": [
						{
							"indexed": true,
							"internalType": "address",
							"name": "from",
							"type": "address"
						},
						{
							"indexed": true,
							"internalType": "address",
							"name": "to",
							"type": "address"
						},
						{
							"indexed": false,
							"internalType": "uint256",
							"name": "value",
							"type": "uint256"
						}
					],
					"name": "Transfer",
					"type": "event"
				},
				{
					"inputs": [
						{
							"internalType": "address",
							"name": "",
							"type": "address"
						},
						{
							"internalType": "address",
							"name": "",
							"type": "address"
						}
					],
					"name": "allowance",
					"outputs": [
						{
							"internalType": "uint256",
							"name": "",
							"type": "uint256"
						}
					],
					"stateMutability": "view",
					"type": "function"
				},
				{
					"inputs": [
						{
							"internalType": "address",
							"name": "spender",
							"type": "address"
						},
						{
							"internalType": "uint256",
							"name": "value",
							"type": "uint256"
						}
					],
					"name": "approve",
					"outputs": [
						{
							"internalType": "bool",
							"name": "",
							"type": "bool"
						}
					],
					"stateMutability": "nonpayable",
					"type": "function"
				},
				{
					"inputs": [
						{
							"internalType": "address",
							"name": "owner",
							"type": "address"
						}
					],
					"name": "balanceOf",
					"outputs": [
						{
							"internalType": "uint256",
							"name": "",
							"type": "uint256"
						}
					],
					"stateMutability": "view",
					"type": "function"
				},
				{
					"inputs": [
						{
							"internalType": "address",
							"name": "",
							"type": "address"
						}
					],
					"name": "balances",
					"outputs": [
						{
							"internalType": "uint256",
							"name": "",
							"type": "uint256"
						}
					],
					"stateMutability": "view",
					"type": "function"
				},
				{
					"inputs": [],
					"name": "burnRate",
					"outputs": [
						{
							"internalType": "uint256",
							"name": "",
							"type": "uint256"
						}
					],
					"stateMutability": "view",
					"type": "function"
				},
				{
					"inputs": [],
					"name": "decimals",
					"outputs": [
						{
							"internalType": "uint256",
							"name": "",
							"type": "uint256"
						}
					],
					"stateMutability": "view",
					"type": "function"
				},
				{
					"inputs": [],
					"name": "name",
					"outputs": [
						{
							"internalType": "string",
							"name": "",
							"type": "string"
						}
					],
					"stateMutability": "view",
					"type": "function"
				},
				{
					"inputs": [],
					"name": "symbol",
					"outputs": [
						{
							"internalType": "string",
							"name": "",
							"type": "string"
						}
					],
					"stateMutability": "view",
					"type": "function"
				},
				{
					"inputs": [],
					"name": "totalSupply",
					"outputs": [
						{
							"internalType": "uint256",
							"name": "",
							"type": "uint256"
						}
					],
					"stateMutability": "view",
					"type": "function"
				},
				{
					"inputs": [
						{
							"internalType": "address",
							"name": "to",
							"type": "address"
						},
						{
							"internalType": "uint256",
							"name": "value",
							"type": "uint256"
						}
					],
					"name": "transfer",
					"outputs": [
						{
							"internalType": "bool",
							"name": "",
							"type": "bool"
						}
					],
					"stateMutability": "nonpayable",
					"type": "function"
				},
				{
					"inputs": [
						{
							"internalType": "address",
							"name": "from",
							"type": "address"
						},
						{
							"internalType": "address",
							"name": "to",
							"type": "address"
						},
						{
							"internalType": "uint256",
							"name": "value",
							"type": "uint256"
						}
					],
					"name": "transferFrom",
					"outputs": [
						{
							"internalType": "bool",
							"name": "",
							"type": "bool"
						}
					],
					"stateMutability": "nonpayable",
					"type": "function"
				}
			],
			"devdoc": {
				"kind": "dev",
				"methods": {},
				"version": 1
			},
			"evm": {
				"assembly": "    /* \"contracts/TokenBurn.sol\":60:1912  contract Token {\r... */\n  mstore(0x40, 0x80)\n    /* \"contracts/TokenBurn.sol\":235:251  10000 * 10 ** 18 */\n  0x021e19e0c9bab2400000\n    /* \"contracts/TokenBurn.sol\":209:251  uint public totalSupply = 10000 * 10 ** 18 */\n  0x02\n  sstore\n    /* \"contracts/TokenBurn.sol\":258:298  string public name = \"CursoCompletoBurn\" */\n  mload(0x40)\n  dup1\n  0x40\n  add\n  0x40\n  mstore\n  dup1\n  0x11\n  dup2\n  mstore\n  0x20\n  add\n  0x437572736f436f6d706c65746f4275726e000000000000000000000000000000\n  dup2\n  mstore\n  pop\n  0x03\n  swap1\n  dup1\n  mload\n  swap1\n  0x20\n  add\n  swap1\n  tag_1\n  swap3\n  swap2\n  swap1\n  tag_2\n  jump\t// in\ntag_1:\n  pop\n    /* \"contracts/TokenBurn.sol\":305:333  string public symbol = \"CCB\" */\n  mload(0x40)\n  dup1\n  0x40\n  add\n  0x40\n  mstore\n  dup1\n  0x03\n  dup2\n  mstore\n  0x20\n  add\n  0x4343420000000000000000000000000000000000000000000000000000000000\n  dup2\n  mstore\n  pop\n  0x04\n  swap1\n  dup1\n  mload\n  swap1\n  0x20\n  add\n  swap1\n  tag_3\n  swap3\n  swap2\n  swap1\n  tag_2\n  jump\t// in\ntag_3:\n  pop\n    /* \"contracts/TokenBurn.sol\":363:365  18 */\n  0x12\n    /* \"contracts/TokenBurn.sol\":340:365  uint public decimals = 18 */\n  0x05\n  sstore\n    /* \"contracts/TokenBurn.sol\":401:403  10 */\n  0x0a\n    /* \"contracts/TokenBurn.sol\":378:403  uint public burnRate = 10 */\n  0x06\n  sstore\n    /* \"contracts/TokenBurn.sol\":646:713  constructor() {\r... */\n  callvalue\n  dup1\n  iszero\n  tag_4\n  jumpi\n  0x00\n  dup1\n  revert\ntag_4:\n  pop\n    /* \"contracts/TokenBurn.sol\":694:705  totalSupply */\n  sload(0x02)\n    /* \"contracts/TokenBurn.sol\":671:679  balances */\n  0x00\n    /* \"contracts/TokenBurn.sol\":671:691  balances[msg.sender] */\n  dup1\n    /* \"contracts/TokenBurn.sol\":680:690  msg.sender */\n  caller\n    /* \"contracts/TokenBurn.sol\":671:691  balances[msg.sender] */\n  0xffffffffffffffffffffffffffffffffffffffff\n  and\n  0xffffffffffffffffffffffffffffffffffffffff\n  and\n  dup2\n  mstore\n  0x20\n  add\n  swap1\n  dup2\n  mstore\n  0x20\n  add\n  0x00\n  keccak256\n    /* \"contracts/TokenBurn.sol\":671:705  balances[msg.sender] = totalSupply */\n  dup2\n  swap1\n  sstore\n  pop\n    /* \"contracts/TokenBurn.sol\":60:1912  contract Token {\r... */\n  jump(tag_7)\ntag_2:\n  dup3\n  dup1\n  sload\n  tag_8\n  swap1\n  tag_9\n  jump\t// in\ntag_8:\n  swap1\n  0x00\n  mstore\n  keccak256(0x00, 0x20)\n  swap1\n  0x1f\n  add\n  0x20\n  swap1\n  div\n  dup2\n  add\n  swap3\n  dup3\n  tag_11\n  jumpi\n  0x00\n  dup6\n  sstore\n  jump(tag_10)\ntag_11:\n  dup3\n  0x1f\n  lt\n  tag_12\n  jumpi\n  dup1\n  mload\n  not(0xff)\n  and\n  dup4\n  dup1\n  add\n  or\n  dup6\n  sstore\n  jump(tag_10)\ntag_12:\n  dup3\n  dup1\n  add\n  0x01\n  add\n  dup6\n  sstore\n  dup3\n  iszero\n  tag_10\n  jumpi\n  swap2\n  dup3\n  add\ntag_13:\n  dup3\n  dup2\n  gt\n  iszero\n  tag_14\n  jumpi\n  dup3\n  mload\n  dup3\n  sstore\n  swap2\n  0x20\n  add\n  swap2\n  swap1\n  0x01\n  add\n  swap1\n  jump(tag_13)\ntag_14:\ntag_10:\n  pop\n  swap1\n  pop\n  tag_15\n  swap2\n  swap1\n  tag_16\n  jump\t// in\ntag_15:\n  pop\n  swap1\n  jump\t// out\ntag_16:\ntag_17:\n  dup1\n  dup3\n  gt\n  iszero\n  tag_18\n  jumpi\n  0x00\n  dup2\n  0x00\n  swap1\n  sstore\n  pop\n  0x01\n  add\n  jump(tag_17)\ntag_18:\n  pop\n  swap1\n  jump\t// out\n    /* \"#utility.yul\":7:327   */\ntag_9:\n  0x00\n    /* \"#utility.yul\":88:89   */\n  0x02\n    /* \"#utility.yul\":82:86   */\n  dup3\n    /* \"#utility.yul\":78:90   */\n  div\n    /* \"#utility.yul\":68:90   */\n  swap1\n  pop\n    /* \"#utility.yul\":135:136   */\n  0x01\n    /* \"#utility.yul\":129:133   */\n  dup3\n    /* \"#utility.yul\":125:137   */\n  and\n    /* \"#utility.yul\":156:174   */\n  dup1\n    /* \"#utility.yul\":146:148   */\n  tag_21\n  jumpi\n    /* \"#utility.yul\":212:216   */\n  0x7f\n    /* \"#utility.yul\":204:210   */\n  dup3\n    /* \"#utility.yul\":200:217   */\n  and\n    /* \"#utility.yul\":190:217   */\n  swap2\n  pop\n    /* \"#utility.yul\":146:148   */\ntag_21:\n    /* \"#utility.yul\":274:276   */\n  0x20\n    /* \"#utility.yul\":266:272   */\n  dup3\n    /* \"#utility.yul\":263:277   */\n  lt\n    /* \"#utility.yul\":243:261   */\n  dup2\n    /* \"#utility.yul\":240:278   */\n  eq\n    /* \"#utility.yul\":237:239   */\n  iszero\n  tag_22\n  jumpi\n    /* \"#utility.yul\":293:311   */\n  tag_23\n  tag_24\n  jump\t// in\ntag_23:\n    /* \"#utility.yul\":237:239   */\ntag_22:\n    /* \"#utility.yul\":58:327   */\n  pop\n  swap2\n  swap1\n  pop\n  jump\t// out\n    /* \"#utility.yul\":333:513   */\ntag_24:\n    /* \"#utility.yul\":381:458   */\n  0x4e487b7100000000000000000000000000000000000000000000000000000000\n    /* \"#utility.yul\":378:379   */\n  0x00\n    /* \"#utility.yul\":371:459   */\n  mstore\n    /* \"#utility.yul\":478:482   */\n  0x22\n    /* \"#utility.yul\":475:476   */\n  0x04\n    /* \"#utility.yul\":468:483   */\n  mstore\n    /* \"#utility.yul\":502:506   */\n  0x24\n    /* \"#utility.yul\":499:500   */\n  0x00\n    /* \"#utility.yul\":492:507   */\n  revert\n    /* \"contracts/TokenBurn.sol\":60:1912  contract Token {\r... */\ntag_7:\n  dataSize(sub_0)\n  dup1\n  dataOffset(sub_0)\n  0x00\n  codecopy\n  0x00\n  return\nstop\n\nsub_0: assembly {\n        /* \"contracts/TokenBurn.sol\":60:1912  contract Token {\r... */\n      mstore(0x40, 0x80)\n      callvalue\n      dup1\n      iszero\n      tag_1\n      jumpi\n      0x00\n      dup1\n      revert\n    tag_1:\n      pop\n      jumpi(tag_2, lt(calldatasize, 0x04))\n      shr(0xe0, calldataload(0x00))\n      dup1\n      0x313ce567\n      gt\n      tag_14\n      jumpi\n      dup1\n      0x313ce567\n      eq\n      tag_8\n      jumpi\n      dup1\n      0x70a08231\n      eq\n      tag_9\n      jumpi\n      dup1\n      0x95d89b41\n      eq\n      tag_10\n      jumpi\n      dup1\n      0xa9059cbb\n      eq\n      tag_11\n      jumpi\n      dup1\n      0xbed99850\n      eq\n      tag_12\n      jumpi\n      dup1\n      0xdd62ed3e\n      eq\n      tag_13\n      jumpi\n      jump(tag_2)\n    tag_14:\n      dup1\n      0x06fdde03\n      eq\n      tag_3\n      jumpi\n      dup1\n      0x095ea7b3\n      eq\n      tag_4\n      jumpi\n      dup1\n      0x18160ddd\n      eq\n      tag_5\n      jumpi\n      dup1\n      0x23b872dd\n      eq\n      tag_6\n      jumpi\n      dup1\n      0x27e235e3\n      eq\n      tag_7\n      jumpi\n    tag_2:\n      0x00\n      dup1\n      revert\n        /* \"contracts/TokenBurn.sol\":258:298  string public name = \"CursoCompletoBurn\" */\n    tag_3:\n      tag_15\n      tag_16\n      jump\t// in\n    tag_15:\n      mload(0x40)\n      tag_17\n      swap2\n      swap1\n      tag_18\n      jump\t// in\n    tag_17:\n      mload(0x40)\n      dup1\n      swap2\n      sub\n      swap1\n      return\n        /* \"contracts/TokenBurn.sol\":1705:1903  function approve(address spender, uint value) public returns(bool) {\r... */\n    tag_4:\n      tag_19\n      0x04\n      dup1\n      calldatasize\n      sub\n      dup2\n      add\n      swap1\n      tag_20\n      swap2\n      swap1\n      tag_21\n      jump\t// in\n    tag_20:\n      tag_22\n      jump\t// in\n    tag_19:\n      mload(0x40)\n      tag_23\n      swap2\n      swap1\n      tag_24\n      jump\t// in\n    tag_23:\n      mload(0x40)\n      dup1\n      swap2\n      sub\n      swap1\n      return\n        /* \"contracts/TokenBurn.sol\":209:251  uint public totalSupply = 10000 * 10 ** 18 */\n    tag_5:\n      tag_25\n      tag_26\n      jump\t// in\n    tag_25:\n      mload(0x40)\n      tag_27\n      swap2\n      swap1\n      tag_28\n      jump\t// in\n    tag_27:\n      mload(0x40)\n      dup1\n      swap2\n      sub\n      swap1\n      return\n        /* \"contracts/TokenBurn.sol\":1298:1693  function transferFrom(address from, address to, uint value) public returns(bool) {\r... */\n    tag_6:\n      tag_29\n      0x04\n      dup1\n      calldatasize\n      sub\n      dup2\n      add\n      swap1\n      tag_30\n      swap2\n      swap1\n      tag_31\n      jump\t// in\n    tag_30:\n      tag_32\n      jump\t// in\n    tag_29:\n      mload(0x40)\n      tag_33\n      swap2\n      swap1\n      tag_24\n      jump\t// in\n    tag_33:\n      mload(0x40)\n      dup1\n      swap2\n      sub\n      swap1\n      return\n        /* \"contracts/TokenBurn.sol\":88:128  mapping(address => uint) public balances */\n    tag_7:\n      tag_34\n      0x04\n      dup1\n      calldatasize\n      sub\n      dup2\n      add\n      swap1\n      tag_35\n      swap2\n      swap1\n      tag_36\n      jump\t// in\n    tag_35:\n      tag_37\n      jump\t// in\n    tag_34:\n      mload(0x40)\n      tag_38\n      swap2\n      swap1\n      tag_28\n      jump\t// in\n    tag_38:\n      mload(0x40)\n      dup1\n      swap2\n      sub\n      swap1\n      return\n        /* \"contracts/TokenBurn.sol\":340:365  uint public decimals = 18 */\n    tag_8:\n      tag_39\n      tag_40\n      jump\t// in\n    tag_39:\n      mload(0x40)\n      tag_41\n      swap2\n      swap1\n      tag_28\n      jump\t// in\n    tag_41:\n      mload(0x40)\n      dup1\n      swap2\n      sub\n      swap1\n      return\n        /* \"contracts/TokenBurn.sol\":725:826  function balanceOf(address owner) public view returns(uint) {\r... */\n    tag_9:\n      tag_42\n      0x04\n      dup1\n      calldatasize\n      sub\n      dup2\n      add\n      swap1\n      tag_43\n      swap2\n      swap1\n      tag_36\n      jump\t// in\n    tag_43:\n      tag_44\n      jump\t// in\n    tag_42:\n      mload(0x40)\n      tag_45\n      swap2\n      swap1\n      tag_28\n      jump\t// in\n    tag_45:\n      mload(0x40)\n      dup1\n      swap2\n      sub\n      swap1\n      return\n        /* \"contracts/TokenBurn.sol\":305:333  string public symbol = \"CCB\" */\n    tag_10:\n      tag_46\n      tag_47\n      jump\t// in\n    tag_46:\n      mload(0x40)\n      tag_48\n      swap2\n      swap1\n      tag_18\n      jump\t// in\n    tag_48:\n      mload(0x40)\n      dup1\n      swap2\n      sub\n      swap1\n      return\n        /* \"contracts/TokenBurn.sol\":838:1286  function transfer(address to, uint value) public returns(bool) {\r... */\n    tag_11:\n      tag_49\n      0x04\n      dup1\n      calldatasize\n      sub\n      dup2\n      add\n      swap1\n      tag_50\n      swap2\n      swap1\n      tag_21\n      jump\t// in\n    tag_50:\n      tag_51\n      jump\t// in\n    tag_49:\n      mload(0x40)\n      tag_52\n      swap2\n      swap1\n      tag_24\n      jump\t// in\n    tag_52:\n      mload(0x40)\n      dup1\n      swap2\n      sub\n      swap1\n      return\n        /* \"contracts/TokenBurn.sol\":378:403  uint public burnRate = 10 */\n    tag_12:\n      tag_53\n      tag_54\n      jump\t// in\n    tag_53:\n      mload(0x40)\n      tag_55\n      swap2\n      swap1\n      tag_28\n      jump\t// in\n    tag_55:\n      mload(0x40)\n      dup1\n      swap2\n      sub\n      swap1\n      return\n        /* \"contracts/TokenBurn.sol\":135:196  mapping(address => mapping(address => uint)) public allowance */\n    tag_13:\n      tag_56\n      0x04\n      dup1\n      calldatasize\n      sub\n      dup2\n      add\n      swap1\n      tag_57\n      swap2\n      swap1\n      tag_58\n      jump\t// in\n    tag_57:\n      tag_59\n      jump\t// in\n    tag_56:\n      mload(0x40)\n      tag_60\n      swap2\n      swap1\n      tag_28\n      jump\t// in\n    tag_60:\n      mload(0x40)\n      dup1\n      swap2\n      sub\n      swap1\n      return\n        /* \"contracts/TokenBurn.sol\":258:298  string public name = \"CursoCompletoBurn\" */\n    tag_16:\n      0x03\n      dup1\n      sload\n      tag_61\n      swap1\n      tag_62\n      jump\t// in\n    tag_61:\n      dup1\n      0x1f\n      add\n      0x20\n      dup1\n      swap2\n      div\n      mul\n      0x20\n      add\n      mload(0x40)\n      swap1\n      dup2\n      add\n      0x40\n      mstore\n      dup1\n      swap3\n      swap2\n      swap1\n      dup2\n      dup2\n      mstore\n      0x20\n      add\n      dup3\n      dup1\n      sload\n      tag_63\n      swap1\n      tag_62\n      jump\t// in\n    tag_63:\n      dup1\n      iszero\n      tag_64\n      jumpi\n      dup1\n      0x1f\n      lt\n      tag_65\n      jumpi\n      0x0100\n      dup1\n      dup4\n      sload\n      div\n      mul\n      dup4\n      mstore\n      swap2\n      0x20\n      add\n      swap2\n      jump(tag_64)\n    tag_65:\n      dup3\n      add\n      swap2\n      swap1\n      0x00\n      mstore\n      keccak256(0x00, 0x20)\n      swap1\n    tag_66:\n      dup2\n      sload\n      dup2\n      mstore\n      swap1\n      0x01\n      add\n      swap1\n      0x20\n      add\n      dup1\n      dup4\n      gt\n      tag_66\n      jumpi\n      dup3\n      swap1\n      sub\n      0x1f\n      and\n      dup3\n      add\n      swap2\n    tag_64:\n      pop\n      pop\n      pop\n      pop\n      pop\n      dup2\n      jump\t// out\n        /* \"contracts/TokenBurn.sol\":1705:1903  function approve(address spender, uint value) public returns(bool) {\r... */\n    tag_22:\n        /* \"contracts/TokenBurn.sol\":1766:1770  bool */\n      0x00\n        /* \"contracts/TokenBurn.sol\":1816:1821  value */\n      dup2\n        /* \"contracts/TokenBurn.sol\":1783:1792  allowance */\n      0x01\n        /* \"contracts/TokenBurn.sol\":1783:1804  allowance[msg.sender] */\n      0x00\n        /* \"contracts/TokenBurn.sol\":1793:1803  msg.sender */\n      caller\n        /* \"contracts/TokenBurn.sol\":1783:1804  allowance[msg.sender] */\n      0xffffffffffffffffffffffffffffffffffffffff\n      and\n      0xffffffffffffffffffffffffffffffffffffffff\n      and\n      dup2\n      mstore\n      0x20\n      add\n      swap1\n      dup2\n      mstore\n      0x20\n      add\n      0x00\n      keccak256\n        /* \"contracts/TokenBurn.sol\":1783:1813  allowance[msg.sender][spender] */\n      0x00\n        /* \"contracts/TokenBurn.sol\":1805:1812  spender */\n      dup6\n        /* \"contracts/TokenBurn.sol\":1783:1813  allowance[msg.sender][spender] */\n      0xffffffffffffffffffffffffffffffffffffffff\n      and\n      0xffffffffffffffffffffffffffffffffffffffff\n      and\n      dup2\n      mstore\n      0x20\n      add\n      swap1\n      dup2\n      mstore\n      0x20\n      add\n      0x00\n      keccak256\n        /* \"contracts/TokenBurn.sol\":1783:1821  allowance[msg.sender][spender] = value */\n      dup2\n      swap1\n      sstore\n      pop\n        /* \"contracts/TokenBurn.sol\":1858:1865  spender */\n      dup3\n        /* \"contracts/TokenBurn.sol\":1837:1873  Approval(msg.sender, spender, value) */\n      0xffffffffffffffffffffffffffffffffffffffff\n      and\n        /* \"contracts/TokenBurn.sol\":1846:1856  msg.sender */\n      caller\n        /* \"contracts/TokenBurn.sol\":1837:1873  Approval(msg.sender, spender, value) */\n      0xffffffffffffffffffffffffffffffffffffffff\n      and\n      0x8c5be1e5ebec7d5bd14f71427d1e84f3dd0314c0f7b2291e5b200ac8c7c3b925\n        /* \"contracts/TokenBurn.sol\":1867:1872  value */\n      dup5\n        /* \"contracts/TokenBurn.sol\":1837:1873  Approval(msg.sender, spender, value) */\n      mload(0x40)\n      tag_68\n      swap2\n      swap1\n      tag_28\n      jump\t// in\n    tag_68:\n      mload(0x40)\n      dup1\n      swap2\n      sub\n      swap1\n      log3\n        /* \"contracts/TokenBurn.sol\":1891:1895  true */\n      0x01\n        /* \"contracts/TokenBurn.sol\":1884:1895  return true */\n      swap1\n      pop\n        /* \"contracts/TokenBurn.sol\":1705:1903  function approve(address spender, uint value) public returns(bool) {\r... */\n      swap3\n      swap2\n      pop\n      pop\n      jump\t// out\n        /* \"contracts/TokenBurn.sol\":209:251  uint public totalSupply = 10000 * 10 ** 18 */\n    tag_26:\n      sload(0x02)\n      dup2\n      jump\t// out\n        /* \"contracts/TokenBurn.sol\":1298:1693  function transferFrom(address from, address to, uint value) public returns(bool) {\r... */\n    tag_32:\n        /* \"contracts/TokenBurn.sol\":1373:1377  bool */\n      0x00\n        /* \"contracts/TokenBurn.sol\":1417:1422  value */\n      dup2\n        /* \"contracts/TokenBurn.sol\":1398:1413  balanceOf(from) */\n      tag_70\n        /* \"contracts/TokenBurn.sol\":1408:1412  from */\n      dup6\n        /* \"contracts/TokenBurn.sol\":1398:1407  balanceOf */\n      tag_44\n        /* \"contracts/TokenBurn.sol\":1398:1413  balanceOf(from) */\n      jump\t// in\n    tag_70:\n        /* \"contracts/TokenBurn.sol\":1398:1422  balanceOf(from) >= value */\n      lt\n      iszero\n        /* \"contracts/TokenBurn.sol\":1390:1463  require(balanceOf(from) >= value, 'Saldo insuficiente (balance too low)') */\n      tag_71\n      jumpi\n      mload(0x40)\n      0x08c379a000000000000000000000000000000000000000000000000000000000\n      dup2\n      mstore\n      0x04\n      add\n      tag_72\n      swap1\n      tag_73\n      jump\t// in\n    tag_72:\n      mload(0x40)\n      dup1\n      swap2\n      sub\n      swap1\n      revert\n    tag_71:\n        /* \"contracts/TokenBurn.sol\":1513:1518  value */\n      dup2\n        /* \"contracts/TokenBurn.sol\":1482:1491  allowance */\n      0x01\n        /* \"contracts/TokenBurn.sol\":1482:1497  allowance[from] */\n      0x00\n        /* \"contracts/TokenBurn.sol\":1492:1496  from */\n      dup7\n        /* \"contracts/TokenBurn.sol\":1482:1497  allowance[from] */\n      0xffffffffffffffffffffffffffffffffffffffff\n      and\n      0xffffffffffffffffffffffffffffffffffffffff\n      and\n      dup2\n      mstore\n      0x20\n      add\n      swap1\n      dup2\n      mstore\n      0x20\n      add\n      0x00\n      keccak256\n        /* \"contracts/TokenBurn.sol\":1482:1509  allowance[from][msg.sender] */\n      0x00\n        /* \"contracts/TokenBurn.sol\":1498:1508  msg.sender */\n      caller\n        /* \"contracts/TokenBurn.sol\":1482:1509  allowance[from][msg.sender] */\n      0xffffffffffffffffffffffffffffffffffffffff\n      and\n      0xffffffffffffffffffffffffffffffffffffffff\n      and\n      dup2\n      mstore\n      0x20\n      add\n      swap1\n      dup2\n      mstore\n      0x20\n      add\n      0x00\n      keccak256\n      sload\n        /* \"contracts/TokenBurn.sol\":1482:1518  allowance[from][msg.sender] >= value */\n      lt\n      iszero\n        /* \"contracts/TokenBurn.sol\":1474:1556  require(allowance[from][msg.sender] >= value, 'Sem permissao (allowance too low)') */\n      tag_74\n      jumpi\n      mload(0x40)\n      0x08c379a000000000000000000000000000000000000000000000000000000000\n      dup2\n      mstore\n      0x04\n      add\n      tag_75\n      swap1\n      tag_76\n      jump\t// in\n    tag_75:\n      mload(0x40)\n      dup1\n      swap2\n      sub\n      swap1\n      revert\n    tag_74:\n        /* \"contracts/TokenBurn.sol\":1583:1588  value */\n      dup2\n        /* \"contracts/TokenBurn.sol\":1567:1575  balances */\n      0x00\n        /* \"contracts/TokenBurn.sol\":1567:1579  balances[to] */\n      dup1\n        /* \"contracts/TokenBurn.sol\":1576:1578  to */\n      dup6\n        /* \"contracts/TokenBurn.sol\":1567:1579  balances[to] */\n      0xffffffffffffffffffffffffffffffffffffffff\n      and\n      0xffffffffffffffffffffffffffffffffffffffff\n      and\n      dup2\n      mstore\n      0x20\n      add\n      swap1\n      dup2\n      mstore\n      0x20\n      add\n      0x00\n      keccak256\n      0x00\n        /* \"contracts/TokenBurn.sol\":1567:1588  balances[to] += value */\n      dup3\n      dup3\n      sload\n      tag_77\n      swap2\n      swap1\n      tag_78\n      jump\t// in\n    tag_77:\n      swap3\n      pop\n      pop\n      dup2\n      swap1\n      sstore\n      pop\n        /* \"contracts/TokenBurn.sol\":1617:1622  value */\n      dup2\n        /* \"contracts/TokenBurn.sol\":1599:1607  balances */\n      0x00\n        /* \"contracts/TokenBurn.sol\":1599:1613  balances[from] */\n      dup1\n        /* \"contracts/TokenBurn.sol\":1608:1612  from */\n      dup7\n        /* \"contracts/TokenBurn.sol\":1599:1613  balances[from] */\n      0xffffffffffffffffffffffffffffffffffffffff\n      and\n      0xffffffffffffffffffffffffffffffffffffffff\n      and\n      dup2\n      mstore\n      0x20\n      add\n      swap1\n      dup2\n      mstore\n      0x20\n      add\n      0x00\n      keccak256\n      0x00\n        /* \"contracts/TokenBurn.sol\":1599:1622  balances[from] -= value */\n      dup3\n      dup3\n      sload\n      tag_79\n      swap2\n      swap1\n      tag_80\n      jump\t// in\n    tag_79:\n      swap3\n      pop\n      pop\n      dup2\n      swap1\n      sstore\n      pop\n        /* \"contracts/TokenBurn.sol\":1653:1655  to */\n      dup3\n        /* \"contracts/TokenBurn.sol\":1638:1663  Transfer(from, to, value) */\n      0xffffffffffffffffffffffffffffffffffffffff\n      and\n        /* \"contracts/TokenBurn.sol\":1647:1651  from */\n      dup5\n        /* \"contracts/TokenBurn.sol\":1638:1663  Transfer(from, to, value) */\n      0xffffffffffffffffffffffffffffffffffffffff\n      and\n      0xddf252ad1be2c89b69c2b068fc378daa952ba7f163c4a11628f55a4df523b3ef\n        /* \"contracts/TokenBurn.sol\":1657:1662  value */\n      dup5\n        /* \"contracts/TokenBurn.sol\":1638:1663  Transfer(from, to, value) */\n      mload(0x40)\n      tag_81\n      swap2\n      swap1\n      tag_28\n      jump\t// in\n    tag_81:\n      mload(0x40)\n      dup1\n      swap2\n      sub\n      swap1\n      log3\n        /* \"contracts/TokenBurn.sol\":1681:1685  true */\n      0x01\n        /* \"contracts/TokenBurn.sol\":1674:1685  return true */\n      swap1\n      pop\n        /* \"contracts/TokenBurn.sol\":1298:1693  function transferFrom(address from, address to, uint value) public returns(bool) {\r... */\n      swap4\n      swap3\n      pop\n      pop\n      pop\n      jump\t// out\n        /* \"contracts/TokenBurn.sol\":88:128  mapping(address => uint) public balances */\n    tag_37:\n      mstore(0x20, 0x00)\n      dup1\n      0x00\n      mstore\n      keccak256(0x00, 0x40)\n      0x00\n      swap2\n      pop\n      swap1\n      pop\n      sload\n      dup2\n      jump\t// out\n        /* \"contracts/TokenBurn.sol\":340:365  uint public decimals = 18 */\n    tag_40:\n      sload(0x05)\n      dup2\n      jump\t// out\n        /* \"contracts/TokenBurn.sol\":725:826  function balanceOf(address owner) public view returns(uint) {\r... */\n    tag_44:\n        /* \"contracts/TokenBurn.sol\":779:783  uint */\n      0x00\n        /* \"contracts/TokenBurn.sol\":803:811  balances */\n      dup1\n        /* \"contracts/TokenBurn.sol\":803:818  balances[owner] */\n      0x00\n        /* \"contracts/TokenBurn.sol\":812:817  owner */\n      dup4\n        /* \"contracts/TokenBurn.sol\":803:818  balances[owner] */\n      0xffffffffffffffffffffffffffffffffffffffff\n      and\n      0xffffffffffffffffffffffffffffffffffffffff\n      and\n      dup2\n      mstore\n      0x20\n      add\n      swap1\n      dup2\n      mstore\n      0x20\n      add\n      0x00\n      keccak256\n      sload\n        /* \"contracts/TokenBurn.sol\":796:818  return balances[owner] */\n      swap1\n      pop\n        /* \"contracts/TokenBurn.sol\":725:826  function balanceOf(address owner) public view returns(uint) {\r... */\n      swap2\n      swap1\n      pop\n      jump\t// out\n        /* \"contracts/TokenBurn.sol\":305:333  string public symbol = \"CCB\" */\n    tag_47:\n      0x04\n      dup1\n      sload\n      tag_83\n      swap1\n      tag_62\n      jump\t// in\n    tag_83:\n      dup1\n      0x1f\n      add\n      0x20\n      dup1\n      swap2\n      div\n      mul\n      0x20\n      add\n      mload(0x40)\n      swap1\n      dup2\n      add\n      0x40\n      mstore\n      dup1\n      swap3\n      swap2\n      swap1\n      dup2\n      dup2\n      mstore\n      0x20\n      add\n      dup3\n      dup1\n      sload\n      tag_84\n      swap1\n      tag_62\n      jump\t// in\n    tag_84:\n      dup1\n      iszero\n      tag_85\n      jumpi\n      dup1\n      0x1f\n      lt\n      tag_86\n      jumpi\n      0x0100\n      dup1\n      dup4\n      sload\n      div\n      mul\n      dup4\n      mstore\n      swap2\n      0x20\n      add\n      swap2\n      jump(tag_85)\n    tag_86:\n      dup3\n      add\n      swap2\n      swap1\n      0x00\n      mstore\n      keccak256(0x00, 0x20)\n      swap1\n    tag_87:\n      dup2\n      sload\n      dup2\n      mstore\n      swap1\n      0x01\n      add\n      swap1\n      0x20\n      add\n      dup1\n      dup4\n      gt\n      tag_87\n      jumpi\n      dup3\n      swap1\n      sub\n      0x1f\n      and\n      dup3\n      add\n      swap2\n    tag_85:\n      pop\n      pop\n      pop\n      pop\n      pop\n      dup2\n      jump\t// out\n        /* \"contracts/TokenBurn.sol\":838:1286  function transfer(address to, uint value) public returns(bool) {\r... */\n    tag_51:\n        /* \"contracts/TokenBurn.sol\":895:899  bool */\n      0x00\n        /* \"contracts/TokenBurn.sol\":945:950  value */\n      dup2\n        /* \"contracts/TokenBurn.sol\":920:941  balanceOf(msg.sender) */\n      tag_89\n        /* \"contracts/TokenBurn.sol\":930:940  msg.sender */\n      caller\n        /* \"contracts/TokenBurn.sol\":920:929  balanceOf */\n      tag_44\n        /* \"contracts/TokenBurn.sol\":920:941  balanceOf(msg.sender) */\n      jump\t// in\n    tag_89:\n        /* \"contracts/TokenBurn.sol\":920:950  balanceOf(msg.sender) >= value */\n      lt\n      iszero\n        /* \"contracts/TokenBurn.sol\":912:991  require(balanceOf(msg.sender) >= value, 'Saldo insuficiente (balance too low)') */\n      tag_90\n      jumpi\n      mload(0x40)\n      0x08c379a000000000000000000000000000000000000000000000000000000000\n      dup2\n      mstore\n      0x04\n      add\n      tag_91\n      swap1\n      tag_73\n      jump\t// in\n    tag_91:\n      mload(0x40)\n      dup1\n      swap2\n      sub\n      swap1\n      revert\n    tag_90:\n        /* \"contracts/TokenBurn.sol\":1002:1018  uint valueToBurn */\n      0x00\n        /* \"contracts/TokenBurn.sol\":1041:1044  100 */\n      0x64\n        /* \"contracts/TokenBurn.sol\":1030:1038  burnRate */\n      sload(0x06)\n        /* \"contracts/TokenBurn.sol\":1022:1027  value */\n      dup5\n        /* \"contracts/TokenBurn.sol\":1022:1038  value * burnRate */\n      tag_92\n      swap2\n      swap1\n      tag_93\n      jump\t// in\n    tag_92:\n        /* \"contracts/TokenBurn.sol\":1022:1044  value * burnRate / 100 */\n      tag_94\n      swap2\n      swap1\n      tag_95\n      jump\t// in\n    tag_94:\n        /* \"contracts/TokenBurn.sol\":1002:1045  uint valueToBurn = (value * burnRate / 100) */\n      swap1\n      pop\n        /* \"contracts/TokenBurn.sol\":1080:1091  valueToBurn */\n      dup1\n        /* \"contracts/TokenBurn.sol\":1072:1077  value */\n      dup4\n        /* \"contracts/TokenBurn.sol\":1072:1091  value - valueToBurn */\n      tag_96\n      swap2\n      swap1\n      tag_80\n      jump\t// in\n    tag_96:\n        /* \"contracts/TokenBurn.sol\":1056:1064  balances */\n      0x00\n        /* \"contracts/TokenBurn.sol\":1056:1068  balances[to] */\n      dup1\n        /* \"contracts/TokenBurn.sol\":1065:1067  to */\n      dup7\n        /* \"contracts/TokenBurn.sol\":1056:1068  balances[to] */\n      0xffffffffffffffffffffffffffffffffffffffff\n      and\n      0xffffffffffffffffffffffffffffffffffffffff\n      and\n      dup2\n      mstore\n      0x20\n      add\n      swap1\n      dup2\n      mstore\n      0x20\n      add\n      0x00\n      keccak256\n      0x00\n        /* \"contracts/TokenBurn.sol\":1056:1091  balances[to] += value - valueToBurn */\n      dup3\n      dup3\n      sload\n      tag_97\n      swap2\n      swap1\n      tag_78\n      jump\t// in\n    tag_97:\n      swap3\n      pop\n      pop\n      dup2\n      swap1\n      sstore\n      pop\n        /* \"contracts/TokenBurn.sol\":1158:1169  valueToBurn */\n      dup1\n        /* \"contracts/TokenBurn.sol\":1102:1110  balances */\n      0x00\n        /* \"contracts/TokenBurn.sol\":1102:1154  balances[0x1111111111111111111111111111111111111111] */\n      dup1\n        /* \"contracts/TokenBurn.sol\":1111:1153  0x1111111111111111111111111111111111111111 */\n      0x1111111111111111111111111111111111111111\n        /* \"contracts/TokenBurn.sol\":1102:1154  balances[0x1111111111111111111111111111111111111111] */\n      0xffffffffffffffffffffffffffffffffffffffff\n      and\n      0xffffffffffffffffffffffffffffffffffffffff\n      and\n      dup2\n      mstore\n      0x20\n      add\n      swap1\n      dup2\n      mstore\n      0x20\n      add\n      0x00\n      keccak256\n      0x00\n        /* \"contracts/TokenBurn.sol\":1102:1169  balances[0x1111111111111111111111111111111111111111] += valueToBurn */\n      dup3\n      dup3\n      sload\n      tag_98\n      swap2\n      swap1\n      tag_78\n      jump\t// in\n    tag_98:\n      swap3\n      pop\n      pop\n      dup2\n      swap1\n      sstore\n      pop\n        /* \"contracts/TokenBurn.sol\":1204:1209  value */\n      dup3\n        /* \"contracts/TokenBurn.sol\":1180:1188  balances */\n      0x00\n        /* \"contracts/TokenBurn.sol\":1180:1200  balances[msg.sender] */\n      dup1\n        /* \"contracts/TokenBurn.sol\":1189:1199  msg.sender */\n      caller\n        /* \"contracts/TokenBurn.sol\":1180:1200  balances[msg.sender] */\n      0xffffffffffffffffffffffffffffffffffffffff\n      and\n      0xffffffffffffffffffffffffffffffffffffffff\n      and\n      dup2\n      mstore\n      0x20\n      add\n      swap1\n      dup2\n      mstore\n      0x20\n      add\n      0x00\n      keccak256\n      0x00\n        /* \"contracts/TokenBurn.sol\":1180:1209  balances[msg.sender] -= value */\n      dup3\n      dup3\n      sload\n      tag_99\n      swap2\n      swap1\n      tag_80\n      jump\t// in\n    tag_99:\n      swap3\n      pop\n      pop\n      dup2\n      swap1\n      sstore\n      pop\n        /* \"contracts/TokenBurn.sol\":1246:1248  to */\n      dup4\n        /* \"contracts/TokenBurn.sol\":1225:1256  Transfer(msg.sender, to, value) */\n      0xffffffffffffffffffffffffffffffffffffffff\n      and\n        /* \"contracts/TokenBurn.sol\":1234:1244  msg.sender */\n      caller\n        /* \"contracts/TokenBurn.sol\":1225:1256  Transfer(msg.sender, to, value) */\n      0xffffffffffffffffffffffffffffffffffffffff\n      and\n      0xddf252ad1be2c89b69c2b068fc378daa952ba7f163c4a11628f55a4df523b3ef\n        /* \"contracts/TokenBurn.sol\":1250:1255  value */\n      dup6\n        /* \"contracts/TokenBurn.sol\":1225:1256  Transfer(msg.sender, to, value) */\n      mload(0x40)\n      tag_100\n      swap2\n      swap1\n      tag_28\n      jump\t// in\n    tag_100:\n      mload(0x40)\n      dup1\n      swap2\n      sub\n      swap1\n      log3\n        /* \"contracts/TokenBurn.sol\":1274:1278  true */\n      0x01\n        /* \"contracts/TokenBurn.sol\":1267:1278  return true */\n      swap2\n      pop\n      pop\n        /* \"contracts/TokenBurn.sol\":838:1286  function transfer(address to, uint value) public returns(bool) {\r... */\n      swap3\n      swap2\n      pop\n      pop\n      jump\t// out\n        /* \"contracts/TokenBurn.sol\":378:403  uint public burnRate = 10 */\n    tag_54:\n      sload(0x06)\n      dup2\n      jump\t// out\n        /* \"contracts/TokenBurn.sol\":135:196  mapping(address => mapping(address => uint)) public allowance */\n    tag_59:\n      mstore(0x20, 0x01)\n      dup2\n      0x00\n      mstore\n      mstore(0x20, keccak256(0x00, 0x40))\n      dup1\n      0x00\n      mstore\n      keccak256(0x00, 0x40)\n      0x00\n      swap2\n      pop\n      swap2\n      pop\n      pop\n      sload\n      dup2\n      jump\t// out\n        /* \"#utility.yul\":7:146   */\n    tag_102:\n      0x00\n        /* \"#utility.yul\":91:97   */\n      dup2\n        /* \"#utility.yul\":78:98   */\n      calldataload\n        /* \"#utility.yul\":69:98   */\n      swap1\n      pop\n        /* \"#utility.yul\":107:140   */\n      tag_104\n        /* \"#utility.yul\":134:139   */\n      dup2\n        /* \"#utility.yul\":107:140   */\n      tag_105\n      jump\t// in\n    tag_104:\n        /* \"#utility.yul\":59:146   */\n      swap3\n      swap2\n      pop\n      pop\n      jump\t// out\n        /* \"#utility.yul\":152:291   */\n    tag_106:\n      0x00\n        /* \"#utility.yul\":236:242   */\n      dup2\n        /* \"#utility.yul\":223:243   */\n      calldataload\n        /* \"#utility.yul\":214:243   */\n      swap1\n      pop\n        /* \"#utility.yul\":252:285   */\n      tag_108\n        /* \"#utility.yul\":279:284   */\n      dup2\n        /* \"#utility.yul\":252:285   */\n      tag_109\n      jump\t// in\n    tag_108:\n        /* \"#utility.yul\":204:291   */\n      swap3\n      swap2\n      pop\n      pop\n      jump\t// out\n        /* \"#utility.yul\":297:559   */\n    tag_36:\n      0x00\n        /* \"#utility.yul\":405:407   */\n      0x20\n        /* \"#utility.yul\":393:402   */\n      dup3\n        /* \"#utility.yul\":384:391   */\n      dup5\n        /* \"#utility.yul\":380:403   */\n      sub\n        /* \"#utility.yul\":376:408   */\n      slt\n        /* \"#utility.yul\":373:375   */\n      iszero\n      tag_111\n      jumpi\n        /* \"#utility.yul\":421:422   */\n      0x00\n        /* \"#utility.yul\":418:419   */\n      dup1\n        /* \"#utility.yul\":411:423   */\n      revert\n        /* \"#utility.yul\":373:375   */\n    tag_111:\n        /* \"#utility.yul\":464:465   */\n      0x00\n        /* \"#utility.yul\":489:542   */\n      tag_112\n        /* \"#utility.yul\":534:541   */\n      dup5\n        /* \"#utility.yul\":525:531   */\n      dup3\n        /* \"#utility.yul\":514:523   */\n      dup6\n        /* \"#utility.yul\":510:532   */\n      add\n        /* \"#utility.yul\":489:542   */\n      tag_102\n      jump\t// in\n    tag_112:\n        /* \"#utility.yul\":479:542   */\n      swap2\n      pop\n        /* \"#utility.yul\":435:552   */\n      pop\n        /* \"#utility.yul\":363:559   */\n      swap3\n      swap2\n      pop\n      pop\n      jump\t// out\n        /* \"#utility.yul\":565:972   */\n    tag_58:\n      0x00\n      dup1\n        /* \"#utility.yul\":690:692   */\n      0x40\n        /* \"#utility.yul\":678:687   */\n      dup4\n        /* \"#utility.yul\":669:676   */\n      dup6\n        /* \"#utility.yul\":665:688   */\n      sub\n        /* \"#utility.yul\":661:693   */\n      slt\n        /* \"#utility.yul\":658:660   */\n      iszero\n      tag_114\n      jumpi\n        /* \"#utility.yul\":706:707   */\n      0x00\n        /* \"#utility.yul\":703:704   */\n      dup1\n        /* \"#utility.yul\":696:708   */\n      revert\n        /* \"#utility.yul\":658:660   */\n    tag_114:\n        /* \"#utility.yul\":749:750   */\n      0x00\n        /* \"#utility.yul\":774:827   */\n      tag_115\n        /* \"#utility.yul\":819:826   */\n      dup6\n        /* \"#utility.yul\":810:816   */\n      dup3\n        /* \"#utility.yul\":799:808   */\n      dup7\n        /* \"#utility.yul\":795:817   */\n      add\n        /* \"#utility.yul\":774:827   */\n      tag_102\n      jump\t// in\n    tag_115:\n        /* \"#utility.yul\":764:827   */\n      swap3\n      pop\n        /* \"#utility.yul\":720:837   */\n      pop\n        /* \"#utility.yul\":876:878   */\n      0x20\n        /* \"#utility.yul\":902:955   */\n      tag_116\n        /* \"#utility.yul\":947:954   */\n      dup6\n        /* \"#utility.yul\":938:944   */\n      dup3\n        /* \"#utility.yul\":927:936   */\n      dup7\n        /* \"#utility.yul\":923:945   */\n      add\n        /* \"#utility.yul\":902:955   */\n      tag_102\n      jump\t// in\n    tag_116:\n        /* \"#utility.yul\":892:955   */\n      swap2\n      pop\n        /* \"#utility.yul\":847:965   */\n      pop\n        /* \"#utility.yul\":648:972   */\n      swap3\n      pop\n      swap3\n      swap1\n      pop\n      jump\t// out\n        /* \"#utility.yul\":978:1530   */\n    tag_31:\n      0x00\n      dup1\n      0x00\n        /* \"#utility.yul\":1120:1122   */\n      0x60\n        /* \"#utility.yul\":1108:1117   */\n      dup5\n        /* \"#utility.yul\":1099:1106   */\n      dup7\n        /* \"#utility.yul\":1095:1118   */\n      sub\n        /* \"#utility.yul\":1091:1123   */\n      slt\n        /* \"#utility.yul\":1088:1090   */\n      iszero\n      tag_118\n      jumpi\n        /* \"#utility.yul\":1136:1137   */\n      0x00\n        /* \"#utility.yul\":1133:1134   */\n      dup1\n        /* \"#utility.yul\":1126:1138   */\n      revert\n        /* \"#utility.yul\":1088:1090   */\n    tag_118:\n        /* \"#utility.yul\":1179:1180   */\n      0x00\n        /* \"#utility.yul\":1204:1257   */\n      tag_119\n        /* \"#utility.yul\":1249:1256   */\n      dup7\n        /* \"#utility.yul\":1240:1246   */\n      dup3\n        /* \"#utility.yul\":1229:1238   */\n      dup8\n        /* \"#utility.yul\":1225:1247   */\n      add\n        /* \"#utility.yul\":1204:1257   */\n      tag_102\n      jump\t// in\n    tag_119:\n        /* \"#utility.yul\":1194:1257   */\n      swap4\n      pop\n        /* \"#utility.yul\":1150:1267   */\n      pop\n        /* \"#utility.yul\":1306:1308   */\n      0x20\n        /* \"#utility.yul\":1332:1385   */\n      tag_120\n        /* \"#utility.yul\":1377:1384   */\n      dup7\n        /* \"#utility.yul\":1368:1374   */\n      dup3\n        /* \"#utility.yul\":1357:1366   */\n      dup8\n        /* \"#utility.yul\":1353:1375   */\n      add\n        /* \"#utility.yul\":1332:1385   */\n      tag_102\n      jump\t// in\n    tag_120:\n        /* \"#utility.yul\":1322:1385   */\n      swap3\n      pop\n        /* \"#utility.yul\":1277:1395   */\n      pop\n        /* \"#utility.yul\":1434:1436   */\n      0x40\n        /* \"#utility.yul\":1460:1513   */\n      tag_121\n        /* \"#utility.yul\":1505:1512   */\n      dup7\n        /* \"#utility.yul\":1496:1502   */\n      dup3\n        /* \"#utility.yul\":1485:1494   */\n      dup8\n        /* \"#utility.yul\":1481:1503   */\n      add\n        /* \"#utility.yul\":1460:1513   */\n      tag_106\n      jump\t// in\n    tag_121:\n        /* \"#utility.yul\":1450:1513   */\n      swap2\n      pop\n        /* \"#utility.yul\":1405:1523   */\n      pop\n        /* \"#utility.yul\":1078:1530   */\n      swap3\n      pop\n      swap3\n      pop\n      swap3\n      jump\t// out\n        /* \"#utility.yul\":1536:1943   */\n    tag_21:\n      0x00\n      dup1\n        /* \"#utility.yul\":1661:1663   */\n      0x40\n        /* \"#utility.yul\":1649:1658   */\n      dup4\n        /* \"#utility.yul\":1640:1647   */\n      dup6\n        /* \"#utility.yul\":1636:1659   */\n      sub\n        /* \"#utility.yul\":1632:1664   */\n      slt\n        /* \"#utility.yul\":1629:1631   */\n      iszero\n      tag_123\n      jumpi\n        /* \"#utility.yul\":1677:1678   */\n      0x00\n        /* \"#utility.yul\":1674:1675   */\n      dup1\n        /* \"#utility.yul\":1667:1679   */\n      revert\n        /* \"#utility.yul\":1629:1631   */\n    tag_123:\n        /* \"#utility.yul\":1720:1721   */\n      0x00\n        /* \"#utility.yul\":1745:1798   */\n      tag_124\n        /* \"#utility.yul\":1790:1797   */\n      dup6\n        /* \"#utility.yul\":1781:1787   */\n      dup3\n        /* \"#utility.yul\":1770:1779   */\n      dup7\n        /* \"#utility.yul\":1766:1788   */\n      add\n        /* \"#utility.yul\":1745:1798   */\n      tag_102\n      jump\t// in\n    tag_124:\n        /* \"#utility.yul\":1735:1798   */\n      swap3\n      pop\n        /* \"#utility.yul\":1691:1808   */\n      pop\n        /* \"#utility.yul\":1847:1849   */\n      0x20\n        /* \"#utility.yul\":1873:1926   */\n      tag_125\n        /* \"#utility.yul\":1918:1925   */\n      dup6\n        /* \"#utility.yul\":1909:1915   */\n      dup3\n        /* \"#utility.yul\":1898:1907   */\n      dup7\n        /* \"#utility.yul\":1894:1916   */\n      add\n        /* \"#utility.yul\":1873:1926   */\n      tag_106\n      jump\t// in\n    tag_125:\n        /* \"#utility.yul\":1863:1926   */\n      swap2\n      pop\n        /* \"#utility.yul\":1818:1936   */\n      pop\n        /* \"#utility.yul\":1619:1943   */\n      swap3\n      pop\n      swap3\n      swap1\n      pop\n      jump\t// out\n        /* \"#utility.yul\":1949:2058   */\n    tag_126:\n        /* \"#utility.yul\":2030:2051   */\n      tag_128\n        /* \"#utility.yul\":2045:2050   */\n      dup2\n        /* \"#utility.yul\":2030:2051   */\n      tag_129\n      jump\t// in\n    tag_128:\n        /* \"#utility.yul\":2025:2028   */\n      dup3\n        /* \"#utility.yul\":2018:2052   */\n      mstore\n        /* \"#utility.yul\":2008:2058   */\n      pop\n      pop\n      jump\t// out\n        /* \"#utility.yul\":2064:2428   */\n    tag_130:\n      0x00\n        /* \"#utility.yul\":2180:2219   */\n      tag_132\n        /* \"#utility.yul\":2213:2218   */\n      dup3\n        /* \"#utility.yul\":2180:2219   */\n      tag_133\n      jump\t// in\n    tag_132:\n        /* \"#utility.yul\":2235:2306   */\n      tag_134\n        /* \"#utility.yul\":2299:2305   */\n      dup2\n        /* \"#utility.yul\":2294:2297   */\n      dup6\n        /* \"#utility.yul\":2235:2306   */\n      tag_135\n      jump\t// in\n    tag_134:\n        /* \"#utility.yul\":2228:2306   */\n      swap4\n      pop\n        /* \"#utility.yul\":2315:2367   */\n      tag_136\n        /* \"#utility.yul\":2360:2366   */\n      dup2\n        /* \"#utility.yul\":2355:2358   */\n      dup6\n        /* \"#utility.yul\":2348:2352   */\n      0x20\n        /* \"#utility.yul\":2341:2346   */\n      dup7\n        /* \"#utility.yul\":2337:2353   */\n      add\n        /* \"#utility.yul\":2315:2367   */\n      tag_137\n      jump\t// in\n    tag_136:\n        /* \"#utility.yul\":2392:2421   */\n      tag_138\n        /* \"#utility.yul\":2414:2420   */\n      dup2\n        /* \"#utility.yul\":2392:2421   */\n      tag_139\n      jump\t// in\n    tag_138:\n        /* \"#utility.yul\":2387:2390   */\n      dup5\n        /* \"#utility.yul\":2383:2422   */\n      add\n        /* \"#utility.yul\":2376:2422   */\n      swap2\n      pop\n        /* \"#utility.yul\":2156:2428   */\n      pop\n      swap3\n      swap2\n      pop\n      pop\n      jump\t// out\n        /* \"#utility.yul\":2434:2800   */\n    tag_140:\n      0x00\n        /* \"#utility.yul\":2597:2664   */\n      tag_142\n        /* \"#utility.yul\":2661:2663   */\n      0x21\n        /* \"#utility.yul\":2656:2659   */\n      dup4\n        /* \"#utility.yul\":2597:2664   */\n      tag_135\n      jump\t// in\n    tag_142:\n        /* \"#utility.yul\":2590:2664   */\n      swap2\n      pop\n        /* \"#utility.yul\":2673:2766   */\n      tag_143\n        /* \"#utility.yul\":2762:2765   */\n      dup3\n        /* \"#utility.yul\":2673:2766   */\n      tag_144\n      jump\t// in\n    tag_143:\n        /* \"#utility.yul\":2791:2793   */\n      0x40\n        /* \"#utility.yul\":2786:2789   */\n      dup3\n        /* \"#utility.yul\":2782:2794   */\n      add\n        /* \"#utility.yul\":2775:2794   */\n      swap1\n      pop\n        /* \"#utility.yul\":2580:2800   */\n      swap2\n      swap1\n      pop\n      jump\t// out\n        /* \"#utility.yul\":2806:3172   */\n    tag_145:\n      0x00\n        /* \"#utility.yul\":2969:3036   */\n      tag_147\n        /* \"#utility.yul\":3033:3035   */\n      0x24\n        /* \"#utility.yul\":3028:3031   */\n      dup4\n        /* \"#utility.yul\":2969:3036   */\n      tag_135\n      jump\t// in\n    tag_147:\n        /* \"#utility.yul\":2962:3036   */\n      swap2\n      pop\n        /* \"#utility.yul\":3045:3138   */\n      tag_148\n        /* \"#utility.yul\":3134:3137   */\n      dup3\n        /* \"#utility.yul\":3045:3138   */\n      tag_149\n      jump\t// in\n    tag_148:\n        /* \"#utility.yul\":3163:3165   */\n      0x40\n        /* \"#utility.yul\":3158:3161   */\n      dup3\n        /* \"#utility.yul\":3154:3166   */\n      add\n        /* \"#utility.yul\":3147:3166   */\n      swap1\n      pop\n        /* \"#utility.yul\":2952:3172   */\n      swap2\n      swap1\n      pop\n      jump\t// out\n        /* \"#utility.yul\":3178:3296   */\n    tag_150:\n        /* \"#utility.yul\":3265:3289   */\n      tag_152\n        /* \"#utility.yul\":3283:3288   */\n      dup2\n        /* \"#utility.yul\":3265:3289   */\n      tag_153\n      jump\t// in\n    tag_152:\n        /* \"#utility.yul\":3260:3263   */\n      dup3\n        /* \"#utility.yul\":3253:3290   */\n      mstore\n        /* \"#utility.yul\":3243:3296   */\n      pop\n      pop\n      jump\t// out\n        /* \"#utility.yul\":3302:3512   */\n    tag_24:\n      0x00\n        /* \"#utility.yul\":3427:3429   */\n      0x20\n        /* \"#utility.yul\":3416:3425   */\n      dup3\n        /* \"#utility.yul\":3412:3430   */\n      add\n        /* \"#utility.yul\":3404:3430   */\n      swap1\n      pop\n        /* \"#utility.yul\":3440:3505   */\n      tag_155\n        /* \"#utility.yul\":3502:3503   */\n      0x00\n        /* \"#utility.yul\":3491:3500   */\n      dup4\n        /* \"#utility.yul\":3487:3504   */\n      add\n        /* \"#utility.yul\":3478:3484   */\n      dup5\n        /* \"#utility.yul\":3440:3505   */\n      tag_126\n      jump\t// in\n    tag_155:\n        /* \"#utility.yul\":3394:3512   */\n      swap3\n      swap2\n      pop\n      pop\n      jump\t// out\n        /* \"#utility.yul\":3518:3831   */\n    tag_18:\n      0x00\n        /* \"#utility.yul\":3669:3671   */\n      0x20\n        /* \"#utility.yul\":3658:3667   */\n      dup3\n        /* \"#utility.yul\":3654:3672   */\n      add\n        /* \"#utility.yul\":3646:3672   */\n      swap1\n      pop\n        /* \"#utility.yul\":3718:3727   */\n      dup2\n        /* \"#utility.yul\":3712:3716   */\n      dup2\n        /* \"#utility.yul\":3708:3728   */\n      sub\n        /* \"#utility.yul\":3704:3705   */\n      0x00\n        /* \"#utility.yul\":3693:3702   */\n      dup4\n        /* \"#utility.yul\":3689:3706   */\n      add\n        /* \"#utility.yul\":3682:3729   */\n      mstore\n        /* \"#utility.yul\":3746:3824   */\n      tag_157\n        /* \"#utility.yul\":3819:3823   */\n      dup2\n        /* \"#utility.yul\":3810:3816   */\n      dup5\n        /* \"#utility.yul\":3746:3824   */\n      tag_130\n      jump\t// in\n    tag_157:\n        /* \"#utility.yul\":3738:3824   */\n      swap1\n      pop\n        /* \"#utility.yul\":3636:3831   */\n      swap3\n      swap2\n      pop\n      pop\n      jump\t// out\n        /* \"#utility.yul\":3837:4256   */\n    tag_76:\n      0x00\n        /* \"#utility.yul\":4041:4043   */\n      0x20\n        /* \"#utility.yul\":4030:4039   */\n      dup3\n        /* \"#utility.yul\":4026:4044   */\n      add\n        /* \"#utility.yul\":4018:4044   */\n      swap1\n      pop\n        /* \"#utility.yul\":4090:4099   */\n      dup2\n        /* \"#utility.yul\":4084:4088   */\n      dup2\n        /* \"#utility.yul\":4080:4100   */\n      sub\n        /* \"#utility.yul\":4076:4077   */\n      0x00\n        /* \"#utility.yul\":4065:4074   */\n      dup4\n        /* \"#utility.yul\":4061:4078   */\n      add\n        /* \"#utility.yul\":4054:4101   */\n      mstore\n        /* \"#utility.yul\":4118:4249   */\n      tag_159\n        /* \"#utility.yul\":4244:4248   */\n      dup2\n        /* \"#utility.yul\":4118:4249   */\n      tag_140\n      jump\t// in\n    tag_159:\n        /* \"#utility.yul\":4110:4249   */\n      swap1\n      pop\n        /* \"#utility.yul\":4008:4256   */\n      swap2\n      swap1\n      pop\n      jump\t// out\n        /* \"#utility.yul\":4262:4681   */\n    tag_73:\n      0x00\n        /* \"#utility.yul\":4466:4468   */\n      0x20\n        /* \"#utility.yul\":4455:4464   */\n      dup3\n        /* \"#utility.yul\":4451:4469   */\n      add\n        /* \"#utility.yul\":4443:4469   */\n      swap1\n      pop\n        /* \"#utility.yul\":4515:4524   */\n      dup2\n        /* \"#utility.yul\":4509:4513   */\n      dup2\n        /* \"#utility.yul\":4505:4525   */\n      sub\n        /* \"#utility.yul\":4501:4502   */\n      0x00\n        /* \"#utility.yul\":4490:4499   */\n      dup4\n        /* \"#utility.yul\":4486:4503   */\n      add\n        /* \"#utility.yul\":4479:4526   */\n      mstore\n        /* \"#utility.yul\":4543:4674   */\n      tag_161\n        /* \"#utility.yul\":4669:4673   */\n      dup2\n        /* \"#utility.yul\":4543:4674   */\n      tag_145\n      jump\t// in\n    tag_161:\n        /* \"#utility.yul\":4535:4674   */\n      swap1\n      pop\n        /* \"#utility.yul\":4433:4681   */\n      swap2\n      swap1\n      pop\n      jump\t// out\n        /* \"#utility.yul\":4687:4909   */\n    tag_28:\n      0x00\n        /* \"#utility.yul\":4818:4820   */\n      0x20\n        /* \"#utility.yul\":4807:4816   */\n      dup3\n        /* \"#utility.yul\":4803:4821   */\n      add\n        /* \"#utility.yul\":4795:4821   */\n      swap1\n      pop\n        /* \"#utility.yul\":4831:4902   */\n      tag_163\n        /* \"#utility.yul\":4899:4900   */\n      0x00\n        /* \"#utility.yul\":4888:4897   */\n      dup4\n        /* \"#utility.yul\":4884:4901   */\n      add\n        /* \"#utility.yul\":4875:4881   */\n      dup5\n        /* \"#utility.yul\":4831:4902   */\n      tag_150\n      jump\t// in\n    tag_163:\n        /* \"#utility.yul\":4785:4909   */\n      swap3\n      swap2\n      pop\n      pop\n      jump\t// out\n        /* \"#utility.yul\":4915:5014   */\n    tag_133:\n      0x00\n        /* \"#utility.yul\":5001:5006   */\n      dup2\n        /* \"#utility.yul\":4995:5007   */\n      mload\n        /* \"#utility.yul\":4985:5007   */\n      swap1\n      pop\n        /* \"#utility.yul\":4974:5014   */\n      swap2\n      swap1\n      pop\n      jump\t// out\n        /* \"#utility.yul\":5020:5189   */\n    tag_135:\n      0x00\n        /* \"#utility.yul\":5138:5144   */\n      dup3\n        /* \"#utility.yul\":5133:5136   */\n      dup3\n        /* \"#utility.yul\":5126:5145   */\n      mstore\n        /* \"#utility.yul\":5178:5182   */\n      0x20\n        /* \"#utility.yul\":5173:5176   */\n      dup3\n        /* \"#utility.yul\":5169:5183   */\n      add\n        /* \"#utility.yul\":5154:5183   */\n      swap1\n      pop\n        /* \"#utility.yul\":5116:5189   */\n      swap3\n      swap2\n      pop\n      pop\n      jump\t// out\n        /* \"#utility.yul\":5195:5500   */\n    tag_78:\n      0x00\n        /* \"#utility.yul\":5254:5274   */\n      tag_167\n        /* \"#utility.yul\":5272:5273   */\n      dup3\n        /* \"#utility.yul\":5254:5274   */\n      tag_153\n      jump\t// in\n    tag_167:\n        /* \"#utility.yul\":5249:5274   */\n      swap2\n      pop\n        /* \"#utility.yul\":5288:5308   */\n      tag_168\n        /* \"#utility.yul\":5306:5307   */\n      dup4\n        /* \"#utility.yul\":5288:5308   */\n      tag_153\n      jump\t// in\n    tag_168:\n        /* \"#utility.yul\":5283:5308   */\n      swap3\n      pop\n        /* \"#utility.yul\":5442:5443   */\n      dup3\n        /* \"#utility.yul\":5374:5440   */\n      0xffffffffffffffffffffffffffffffffffffffffffffffffffffffffffffffff\n        /* \"#utility.yul\":5370:5444   */\n      sub\n        /* \"#utility.yul\":5367:5368   */\n      dup3\n        /* \"#utility.yul\":5364:5445   */\n      gt\n        /* \"#utility.yul\":5361:5363   */\n      iszero\n      tag_169\n      jumpi\n        /* \"#utility.yul\":5448:5466   */\n      tag_170\n      tag_171\n      jump\t// in\n    tag_170:\n        /* \"#utility.yul\":5361:5363   */\n    tag_169:\n        /* \"#utility.yul\":5492:5493   */\n      dup3\n        /* \"#utility.yul\":5489:5490   */\n      dup3\n        /* \"#utility.yul\":5485:5494   */\n      add\n        /* \"#utility.yul\":5478:5494   */\n      swap1\n      pop\n        /* \"#utility.yul\":5239:5500   */\n      swap3\n      swap2\n      pop\n      pop\n      jump\t// out\n        /* \"#utility.yul\":5506:5691   */\n    tag_95:\n      0x00\n        /* \"#utility.yul\":5563:5583   */\n      tag_173\n        /* \"#utility.yul\":5581:5582   */\n      dup3\n        /* \"#utility.yul\":5563:5583   */\n      tag_153\n      jump\t// in\n    tag_173:\n        /* \"#utility.yul\":5558:5583   */\n      swap2\n      pop\n        /* \"#utility.yul\":5597:5617   */\n      tag_174\n        /* \"#utility.yul\":5615:5616   */\n      dup4\n        /* \"#utility.yul\":5597:5617   */\n      tag_153\n      jump\t// in\n    tag_174:\n        /* \"#utility.yul\":5592:5617   */\n      swap3\n      pop\n        /* \"#utility.yul\":5636:5637   */\n      dup3\n        /* \"#utility.yul\":5626:5628   */\n      tag_175\n      jumpi\n        /* \"#utility.yul\":5641:5659   */\n      tag_176\n      tag_177\n      jump\t// in\n    tag_176:\n        /* \"#utility.yul\":5626:5628   */\n    tag_175:\n        /* \"#utility.yul\":5683:5684   */\n      dup3\n        /* \"#utility.yul\":5680:5681   */\n      dup3\n        /* \"#utility.yul\":5676:5685   */\n      div\n        /* \"#utility.yul\":5671:5685   */\n      swap1\n      pop\n        /* \"#utility.yul\":5548:5691   */\n      swap3\n      swap2\n      pop\n      pop\n      jump\t// out\n        /* \"#utility.yul\":5697:6045   */\n    tag_93:\n      0x00\n        /* \"#utility.yul\":5760:5780   */\n      tag_179\n        /* \"#utility.yul\":5778:5779   */\n      dup3\n        /* \"#utility.yul\":5760:5780   */\n      tag_153\n      jump\t// in\n    tag_179:\n        /* \"#utility.yul\":5755:5780   */\n      swap2\n      pop\n        /* \"#utility.yul\":5794:5814   */\n      tag_180\n        /* \"#utility.yul\":5812:5813   */\n      dup4\n        /* \"#utility.yul\":5794:5814   */\n      tag_153\n      jump\t// in\n    tag_180:\n        /* \"#utility.yul\":5789:5814   */\n      swap3\n      pop\n        /* \"#utility.yul\":5982:5983   */\n      dup2\n        /* \"#utility.yul\":5914:5980   */\n      0xffffffffffffffffffffffffffffffffffffffffffffffffffffffffffffffff\n        /* \"#utility.yul\":5910:5984   */\n      div\n        /* \"#utility.yul\":5907:5908   */\n      dup4\n        /* \"#utility.yul\":5904:5985   */\n      gt\n        /* \"#utility.yul\":5899:5900   */\n      dup3\n        /* \"#utility.yul\":5892:5901   */\n      iszero\n        /* \"#utility.yul\":5885:5902   */\n      iszero\n        /* \"#utility.yul\":5881:5986   */\n      and\n        /* \"#utility.yul\":5878:5880   */\n      iszero\n      tag_181\n      jumpi\n        /* \"#utility.yul\":5989:6007   */\n      tag_182\n      tag_171\n      jump\t// in\n    tag_182:\n        /* \"#utility.yul\":5878:5880   */\n    tag_181:\n        /* \"#utility.yul\":6037:6038   */\n      dup3\n        /* \"#utility.yul\":6034:6035   */\n      dup3\n        /* \"#utility.yul\":6030:6039   */\n      mul\n        /* \"#utility.yul\":6019:6039   */\n      swap1\n      pop\n        /* \"#utility.yul\":5745:6045   */\n      swap3\n      swap2\n      pop\n      pop\n      jump\t// out\n        /* \"#utility.yul\":6051:6242   */\n    tag_80:\n      0x00\n        /* \"#utility.yul\":6111:6131   */\n      tag_184\n        /* \"#utility.yul\":6129:6130   */\n      dup3\n        /* \"#utility.yul\":6111:6131   */\n      tag_153\n      jump\t// in\n    tag_184:\n        /* \"#utility.yul\":6106:6131   */\n      swap2\n      pop\n        /* \"#utility.yul\":6145:6165   */\n      tag_185\n        /* \"#utility.yul\":6163:6164   */\n      dup4\n        /* \"#utility.yul\":6145:6165   */\n      tag_153\n      jump\t// in\n    tag_185:\n        /* \"#utility.yul\":6140:6165   */\n      swap3\n      pop\n        /* \"#utility.yul\":6184:6185   */\n      dup3\n        /* \"#utility.yul\":6181:6182   */\n      dup3\n        /* \"#utility.yul\":6178:6186   */\n      lt\n        /* \"#utility.yul\":6175:6177   */\n      iszero\n      tag_186\n      jumpi\n        /* \"#utility.yul\":6189:6207   */\n      tag_187\n      tag_171\n      jump\t// in\n    tag_187:\n        /* \"#utility.yul\":6175:6177   */\n    tag_186:\n        /* \"#utility.yul\":6234:6235   */\n      dup3\n        /* \"#utility.yul\":6231:6232   */\n      dup3\n        /* \"#utility.yul\":6227:6236   */\n      sub\n        /* \"#utility.yul\":6219:6236   */\n      swap1\n      pop\n        /* \"#utility.yul\":6096:6242   */\n      swap3\n      swap2\n      pop\n      pop\n      jump\t// out\n        /* \"#utility.yul\":6248:6344   */\n    tag_188:\n      0x00\n        /* \"#utility.yul\":6314:6338   */\n      tag_190\n        /* \"#utility.yul\":6332:6337   */\n      dup3\n        /* \"#utility.yul\":6314:6338   */\n      tag_191\n      jump\t// in\n    tag_190:\n        /* \"#utility.yul\":6303:6338   */\n      swap1\n      pop\n        /* \"#utility.yul\":6293:6344   */\n      swap2\n      swap1\n      pop\n      jump\t// out\n        /* \"#utility.yul\":6350:6440   */\n    tag_129:\n      0x00\n        /* \"#utility.yul\":6427:6432   */\n      dup2\n        /* \"#utility.yul\":6420:6433   */\n      iszero\n        /* \"#utility.yul\":6413:6434   */\n      iszero\n        /* \"#utility.yul\":6402:6434   */\n      swap1\n      pop\n        /* \"#utility.yul\":6392:6440   */\n      swap2\n      swap1\n      pop\n      jump\t// out\n        /* \"#utility.yul\":6446:6572   */\n    tag_191:\n      0x00\n        /* \"#utility.yul\":6523:6565   */\n      0xffffffffffffffffffffffffffffffffffffffff\n        /* \"#utility.yul\":6516:6521   */\n      dup3\n        /* \"#utility.yul\":6512:6566   */\n      and\n        /* \"#utility.yul\":6501:6566   */\n      swap1\n      pop\n        /* \"#utility.yul\":6491:6572   */\n      swap2\n      swap1\n      pop\n      jump\t// out\n        /* \"#utility.yul\":6578:6655   */\n    tag_153:\n      0x00\n        /* \"#utility.yul\":6644:6649   */\n      dup2\n        /* \"#utility.yul\":6633:6649   */\n      swap1\n      pop\n        /* \"#utility.yul\":6623:6655   */\n      swap2\n      swap1\n      pop\n      jump\t// out\n        /* \"#utility.yul\":6661:6968   */\n    tag_137:\n        /* \"#utility.yul\":6729:6730   */\n      0x00\n        /* \"#utility.yul\":6739:6852   */\n    tag_196:\n        /* \"#utility.yul\":6753:6759   */\n      dup4\n        /* \"#utility.yul\":6750:6751   */\n      dup2\n        /* \"#utility.yul\":6747:6760   */\n      lt\n        /* \"#utility.yul\":6739:6852   */\n      iszero\n      tag_198\n      jumpi\n        /* \"#utility.yul\":6838:6839   */\n      dup1\n        /* \"#utility.yul\":6833:6836   */\n      dup3\n        /* \"#utility.yul\":6829:6840   */\n      add\n        /* \"#utility.yul\":6823:6841   */\n      mload\n        /* \"#utility.yul\":6819:6820   */\n      dup2\n        /* \"#utility.yul\":6814:6817   */\n      dup5\n        /* \"#utility.yul\":6810:6821   */\n      add\n        /* \"#utility.yul\":6803:6842   */\n      mstore\n        /* \"#utility.yul\":6775:6777   */\n      0x20\n        /* \"#utility.yul\":6772:6773   */\n      dup2\n        /* \"#utility.yul\":6768:6778   */\n      add\n        /* \"#utility.yul\":6763:6778   */\n      swap1\n      pop\n        /* \"#utility.yul\":6739:6852   */\n      jump(tag_196)\n    tag_198:\n        /* \"#utility.yul\":6870:6876   */\n      dup4\n        /* \"#utility.yul\":6867:6868   */\n      dup2\n        /* \"#utility.yul\":6864:6877   */\n      gt\n        /* \"#utility.yul\":6861:6863   */\n      iszero\n      tag_199\n      jumpi\n        /* \"#utility.yul\":6950:6951   */\n      0x00\n        /* \"#utility.yul\":6941:6947   */\n      dup5\n        /* \"#utility.yul\":6936:6939   */\n      dup5\n        /* \"#utility.yul\":6932:6948   */\n      add\n        /* \"#utility.yul\":6925:6952   */\n      mstore\n        /* \"#utility.yul\":6861:6863   */\n    tag_199:\n        /* \"#utility.yul\":6710:6968   */\n      pop\n      pop\n      pop\n      pop\n      jump\t// out\n        /* \"#utility.yul\":6974:7294   */\n    tag_62:\n      0x00\n        /* \"#utility.yul\":7055:7056   */\n      0x02\n        /* \"#utility.yul\":7049:7053   */\n      dup3\n        /* \"#utility.yul\":7045:7057   */\n      div\n        /* \"#utility.yul\":7035:7057   */\n      swap1\n      pop\n        /* \"#utility.yul\":7102:7103   */\n      0x01\n        /* \"#utility.yul\":7096:7100   */\n      dup3\n        /* \"#utility.yul\":7092:7104   */\n      and\n        /* \"#utility.yul\":7123:7141   */\n      dup1\n        /* \"#utility.yul\":7113:7115   */\n      tag_201\n      jumpi\n        /* \"#utility.yul\":7179:7183   */\n      0x7f\n        /* \"#utility.yul\":7171:7177   */\n      dup3\n        /* \"#utility.yul\":7167:7184   */\n      and\n        /* \"#utility.yul\":7157:7184   */\n      swap2\n      pop\n        /* \"#utility.yul\":7113:7115   */\n    tag_201:\n        /* \"#utility.yul\":7241:7243   */\n      0x20\n        /* \"#utility.yul\":7233:7239   */\n      dup3\n        /* \"#utility.yul\":7230:7244   */\n      lt\n        /* \"#utility.yul\":7210:7228   */\n      dup2\n        /* \"#utility.yul\":7207:7245   */\n      eq\n        /* \"#utility.yul\":7204:7206   */\n      iszero\n      tag_202\n      jumpi\n        /* \"#utility.yul\":7260:7278   */\n      tag_203\n      tag_204\n      jump\t// in\n    tag_203:\n        /* \"#utility.yul\":7204:7206   */\n    tag_202:\n        /* \"#utility.yul\":7025:7294   */\n      pop\n      swap2\n      swap1\n      pop\n      jump\t// out\n        /* \"#utility.yul\":7300:7480   */\n    tag_171:\n        /* \"#utility.yul\":7348:7425   */\n      0x4e487b7100000000000000000000000000000000000000000000000000000000\n        /* \"#utility.yul\":7345:7346   */\n      0x00\n        /* \"#utility.yul\":7338:7426   */\n      mstore\n        /* \"#utility.yul\":7445:7449   */\n      0x11\n        /* \"#utility.yul\":7442:7443   */\n      0x04\n        /* \"#utility.yul\":7435:7450   */\n      mstore\n        /* \"#utility.yul\":7469:7473   */\n      0x24\n        /* \"#utility.yul\":7466:7467   */\n      0x00\n        /* \"#utility.yul\":7459:7474   */\n      revert\n        /* \"#utility.yul\":7486:7666   */\n    tag_177:\n        /* \"#utility.yul\":7534:7611   */\n      0x4e487b7100000000000000000000000000000000000000000000000000000000\n        /* \"#utility.yul\":7531:7532   */\n      0x00\n        /* \"#utility.yul\":7524:7612   */\n      mstore\n        /* \"#utility.yul\":7631:7635   */\n      0x12\n        /* \"#utility.yul\":7628:7629   */\n      0x04\n        /* \"#utility.yul\":7621:7636   */\n      mstore\n        /* \"#utility.yul\":7655:7659   */\n      0x24\n        /* \"#utility.yul\":7652:7653   */\n      0x00\n        /* \"#utility.yul\":7645:7660   */\n      revert\n        /* \"#utility.yul\":7672:7852   */\n    tag_204:\n        /* \"#utility.yul\":7720:7797   */\n      0x4e487b7100000000000000000000000000000000000000000000000000000000\n        /* \"#utility.yul\":7717:7718   */\n      0x00\n        /* \"#utility.yul\":7710:7798   */\n      mstore\n        /* \"#utility.yul\":7817:7821   */\n      0x22\n        /* \"#utility.yul\":7814:7815   */\n      0x04\n        /* \"#utility.yul\":7807:7822   */\n      mstore\n        /* \"#utility.yul\":7841:7845   */\n      0x24\n        /* \"#utility.yul\":7838:7839   */\n      0x00\n        /* \"#utility.yul\":7831:7846   */\n      revert\n        /* \"#utility.yul\":7858:7960   */\n    tag_139:\n      0x00\n        /* \"#utility.yul\":7950:7952   */\n      0x1f\n        /* \"#utility.yul\":7946:7953   */\n      not\n        /* \"#utility.yul\":7941:7943   */\n      0x1f\n        /* \"#utility.yul\":7934:7939   */\n      dup4\n        /* \"#utility.yul\":7930:7944   */\n      add\n        /* \"#utility.yul\":7926:7954   */\n      and\n        /* \"#utility.yul\":7916:7954   */\n      swap1\n      pop\n        /* \"#utility.yul\":7906:7960   */\n      swap2\n      swap1\n      pop\n      jump\t// out\n        /* \"#utility.yul\":7966:8186   */\n    tag_144:\n        /* \"#utility.yul\":8106:8140   */\n      0x53656d207065726d697373616f2028616c6c6f77616e636520746f6f206c6f77\n        /* \"#utility.yul\":8102:8103   */\n      0x00\n        /* \"#utility.yul\":8094:8100   */\n      dup3\n        /* \"#utility.yul\":8090:8104   */\n      add\n        /* \"#utility.yul\":8083:8141   */\n      mstore\n        /* \"#utility.yul\":8175:8178   */\n      0x2900000000000000000000000000000000000000000000000000000000000000\n        /* \"#utility.yul\":8170:8172   */\n      0x20\n        /* \"#utility.yul\":8162:8168   */\n      dup3\n        /* \"#utility.yul\":8158:8173   */\n      add\n        /* \"#utility.yul\":8151:8179   */\n      mstore\n        /* \"#utility.yul\":8072:8186   */\n      pop\n      jump\t// out\n        /* \"#utility.yul\":8192:8415   */\n    tag_149:\n        /* \"#utility.yul\":8332:8366   */\n      0x53616c646f20696e737566696369656e7465202862616c616e636520746f6f20\n        /* \"#utility.yul\":8328:8329   */\n      0x00\n        /* \"#utility.yul\":8320:8326   */\n      dup3\n        /* \"#utility.yul\":8316:8330   */\n      add\n        /* \"#utility.yul\":8309:8367   */\n      mstore\n        /* \"#utility.yul\":8401:8407   */\n      0x6c6f772900000000000000000000000000000000000000000000000000000000\n        /* \"#utility.yul\":8396:8398   */\n      0x20\n        /* \"#utility.yul\":8388:8394   */\n      dup3\n        /* \"#utility.yul\":8384:8399   */\n      add\n        /* \"#utility.yul\":8377:8408   */\n      mstore\n        /* \"#utility.yul\":8298:8415   */\n      pop\n      jump\t// out\n        /* \"#utility.yul\":8421:8543   */\n    tag_105:\n        /* \"#utility.yul\":8494:8518   */\n      tag_212\n        /* \"#utility.yul\":8512:8517   */\n      dup2\n        /* \"#utility.yul\":8494:8518   */\n      tag_188\n      jump\t// in\n    tag_212:\n        /* \"#utility.yul\":8487:8492   */\n      dup2\n        /* \"#utility.yul\":8484:8519   */\n      eq\n        /* \"#utility.yul\":8474:8476   */\n      tag_213\n      jumpi\n        /* \"#utility.yul\":8533:8534   */\n      0x00\n        /* \"#utility.yul\":8530:8531   */\n      dup1\n        /* \"#utility.yul\":8523:8535   */\n      revert\n        /* \"#utility.yul\":8474:8476   */\n    tag_213:\n        /* \"#utility.yul\":8464:8543   */\n      pop\n      jump\t// out\n        /* \"#utility.yul\":8549:8671   */\n    tag_109:\n        /* \"#utility.yul\":8622:8646   */\n      tag_215\n        /* \"#utility.yul\":8640:8645   */\n      dup2\n        /* \"#utility.yul\":8622:8646   */\n      tag_153\n      jump\t// in\n    tag_215:\n        /* \"#utility.yul\":8615:8620   */\n      dup2\n        /* \"#utility.yul\":8612:8647   */\n      eq\n        /* \"#utility.yul\":8602:8604   */\n      tag_216\n      jumpi\n        /* \"#utility.yul\":8661:8662   */\n      0x00\n        /* \"#utility.yul\":8658:8659   */\n      dup1\n        /* \"#utility.yul\":8651:8663   */\n      revert\n        /* \"#utility.yul\":8602:8604   */\n    tag_216:\n        /* \"#utility.yul\":8592:8671   */\n      pop\n      jump\t// out\n\n    auxdata: 0xa264697066735822122012ed21e0e4f6f3a3e143c56a23a7c789d51f73732099ef0d4b17e95271ab512464736f6c63430008020033\n}\n",
				"bytecode": {
					"linkReferences": {},
					"object": "608060405269021e19e0c9bab24000006002556040518060400160405280601181526020017f437572736f436f6d706c65746f4275726e000000000000000000000000000000815250600390805190602001906200005f92919062000111565b506040518060400160405280600381526020017f434342000000000000000000000000000000000000000000000000000000000081525060049080519060200190620000ad92919062000111565b506012600555600a600655348015620000c557600080fd5b506002546000803373ffffffffffffffffffffffffffffffffffffffff1673ffffffffffffffffffffffffffffffffffffffff1681526020019081526020016000208190555062000226565b8280546200011f90620001c1565b90600052602060002090601f0160209004810192826200014357600085556200018f565b82601f106200015e57805160ff19168380011785556200018f565b828001600101855582156200018f579182015b828111156200018e57825182559160200191906001019062000171565b5b5090506200019e9190620001a2565b5090565b5b80821115620001bd576000816000905550600101620001a3565b5090565b60006002820490506001821680620001da57607f821691505b60208210811415620001f157620001f0620001f7565b5b50919050565b7f4e487b7100000000000000000000000000000000000000000000000000000000600052602260045260246000fd5b610ef580620002366000396000f3fe608060405234801561001057600080fd5b50600436106100a95760003560e01c8063313ce56711610071578063313ce5671461017a57806370a082311461019857806395d89b41146101c8578063a9059cbb146101e6578063bed9985014610216578063dd62ed3e14610234576100a9565b806306fdde03146100ae578063095ea7b3146100cc57806318160ddd146100fc57806323b872dd1461011a57806327e235e31461014a575b600080fd5b6100b6610264565b6040516100c39190610afa565b60405180910390f35b6100e660048036038101906100e19190610a06565b6102f2565b6040516100f39190610adf565b60405180910390f35b6101046103e4565b6040516101119190610b5c565b60405180910390f35b610134600480360381019061012f91906109b7565b6103ea565b6040516101419190610adf565b60405180910390f35b610164600480360381019061015f9190610952565b610610565b6040516101719190610b5c565b60405180910390f35b610182610628565b60405161018f9190610b5c565b60405180910390f35b6101b260048036038101906101ad9190610952565b61062e565b6040516101bf9190610b5c565b60405180910390f35b6101d0610676565b6040516101dd9190610afa565b60405180910390f35b61020060048036038101906101fb9190610a06565b610704565b60405161020d9190610adf565b60405180910390f35b61021e6108fd565b60405161022b9190610b5c565b60405180910390f35b61024e6004803603810190610249919061097b565b610903565b60405161025b9190610b5c565b60405180910390f35b6003805461027190610d23565b80601f016020809104026020016040519081016040528092919081815260200182805461029d90610d23565b80156102ea5780601f106102bf576101008083540402835291602001916102ea565b820191906000526020600020905b8154815290600101906020018083116102cd57829003601f168201915b505050505081565b600081600160003373ffffffffffffffffffffffffffffffffffffffff1673ffffffffffffffffffffffffffffffffffffffff16815260200190815260200160002060008573ffffffffffffffffffffffffffffffffffffffff1673ffffffffffffffffffffffffffffffffffffffff168152602001908152602001600020819055508273ffffffffffffffffffffffffffffffffffffffff163373ffffffffffffffffffffffffffffffffffffffff167f8c5be1e5ebec7d5bd14f71427d1e84f3dd0314c0f7b2291e5b200ac8c7c3b925846040516103d29190610b5c565b60405180910390a36001905092915050565b60025481565b6000816103f68561062e565b1015610437576040517f08c379a000000000000000000000000000000000000000000000000000000000815260040161042e90610b3c565b60405180910390fd5b81600160008673ffffffffffffffffffffffffffffffffffffffff1673ffffffffffffffffffffffffffffffffffffffff16815260200190815260200160002060003373ffffffffffffffffffffffffffffffffffffffff1673ffffffffffffffffffffffffffffffffffffffff1681526020019081526020016000205410156104f6576040517f08c379a00000000000000000000000000000000000000000000000000000000081526004016104ed90610b1c565b60405180910390fd5b816000808573ffffffffffffffffffffffffffffffffffffffff1673ffffffffffffffffffffffffffffffffffffffff16815260200190815260200160002060008282546105449190610b93565b92505081905550816000808673ffffffffffffffffffffffffffffffffffffffff1673ffffffffffffffffffffffffffffffffffffffff16815260200190815260200160002060008282546105999190610c74565b925050819055508273ffffffffffffffffffffffffffffffffffffffff168473ffffffffffffffffffffffffffffffffffffffff167fddf252ad1be2c89b69c2b068fc378daa952ba7f163c4a11628f55a4df523b3ef846040516105fd9190610b5c565b60405180910390a3600190509392505050565b60006020528060005260406000206000915090505481565b60055481565b60008060008373ffffffffffffffffffffffffffffffffffffffff1673ffffffffffffffffffffffffffffffffffffffff168152602001908152602001600020549050919050565b6004805461068390610d23565b80601f01602080910402602001604051908101604052809291908181526020018280546106af90610d23565b80156106fc5780601f106106d1576101008083540402835291602001916106fc565b820191906000526020600020905b8154815290600101906020018083116106df57829003601f168201915b505050505081565b6000816107103361062e565b1015610751576040517f08c379a000000000000000000000000000000000000000000000000000000000815260040161074890610b3c565b60405180910390fd5b60006064600654846107639190610c1a565b61076d9190610be9565b9050808361077b9190610c74565b6000808673ffffffffffffffffffffffffffffffffffffffff1673ffffffffffffffffffffffffffffffffffffffff16815260200190815260200160002060008282546107c89190610b93565b925050819055508060008073111111111111111111111111111111111111111173ffffffffffffffffffffffffffffffffffffffff1673ffffffffffffffffffffffffffffffffffffffff16815260200190815260200160002060008282546108319190610b93565b92505081905550826000803373ffffffffffffffffffffffffffffffffffffffff1673ffffffffffffffffffffffffffffffffffffffff16815260200190815260200160002060008282546108869190610c74565b925050819055508373ffffffffffffffffffffffffffffffffffffffff163373ffffffffffffffffffffffffffffffffffffffff167fddf252ad1be2c89b69c2b068fc378daa952ba7f163c4a11628f55a4df523b3ef856040516108ea9190610b5c565b60405180910390a3600191505092915050565b60065481565b6001602052816000526040600020602052806000526040600020600091509150505481565b60008135905061093781610e91565b92915050565b60008135905061094c81610ea8565b92915050565b60006020828403121561096457600080fd5b600061097284828501610928565b91505092915050565b6000806040838503121561098e57600080fd5b600061099c85828601610928565b92505060206109ad85828601610928565b9150509250929050565b6000806000606084860312156109cc57600080fd5b60006109da86828701610928565b93505060206109eb86828701610928565b92505060406109fc8682870161093d565b9150509250925092565b60008060408385031215610a1957600080fd5b6000610a2785828601610928565b9250506020610a388582860161093d565b9150509250929050565b610a4b81610cba565b82525050565b6000610a5c82610b77565b610a668185610b82565b9350610a76818560208601610cf0565b610a7f81610de2565b840191505092915050565b6000610a97602183610b82565b9150610aa282610df3565b604082019050919050565b6000610aba602483610b82565b9150610ac582610e42565b604082019050919050565b610ad981610ce6565b82525050565b6000602082019050610af46000830184610a42565b92915050565b60006020820190508181036000830152610b148184610a51565b905092915050565b60006020820190508181036000830152610b3581610a8a565b9050919050565b60006020820190508181036000830152610b5581610aad565b9050919050565b6000602082019050610b716000830184610ad0565b92915050565b600081519050919050565b600082825260208201905092915050565b6000610b9e82610ce6565b9150610ba983610ce6565b9250827fffffffffffffffffffffffffffffffffffffffffffffffffffffffffffffffff03821115610bde57610bdd610d55565b5b828201905092915050565b6000610bf482610ce6565b9150610bff83610ce6565b925082610c0f57610c0e610d84565b5b828204905092915050565b6000610c2582610ce6565b9150610c3083610ce6565b9250817fffffffffffffffffffffffffffffffffffffffffffffffffffffffffffffffff0483118215151615610c6957610c68610d55565b5b828202905092915050565b6000610c7f82610ce6565b9150610c8a83610ce6565b925082821015610c9d57610c9c610d55565b5b828203905092915050565b6000610cb382610cc6565b9050919050565b60008115159050919050565b600073ffffffffffffffffffffffffffffffffffffffff82169050919050565b6000819050919050565b60005b83811015610d0e578082015181840152602081019050610cf3565b83811115610d1d576000848401525b50505050565b60006002820490506001821680610d3b57607f821691505b60208210811415610d4f57610d4e610db3565b5b50919050565b7f4e487b7100000000000000000000000000000000000000000000000000000000600052601160045260246000fd5b7f4e487b7100000000000000000000000000000000000000000000000000000000600052601260045260246000fd5b7f4e487b7100000000000000000000000000000000000000000000000000000000600052602260045260246000fd5b6000601f19601f8301169050919050565b7f53656d207065726d697373616f2028616c6c6f77616e636520746f6f206c6f7760008201527f2900000000000000000000000000000000000000000000000000000000000000602082015250565b7f53616c646f20696e737566696369656e7465202862616c616e636520746f6f2060008201527f6c6f772900000000000000000000000000000000000000000000000000000000602082015250565b610e9a81610ca8565b8114610ea557600080fd5b50565b610eb181610ce6565b8114610ebc57600080fd5b5056fea264697066735822122012ed21e0e4f6f3a3e143c56a23a7c789d51f73732099ef0d4b17e95271ab512464736f6c63430008020033",
					"opcodes": "PUSH1 0x80 PUSH1 0x40 MSTORE PUSH10 0x21E19E0C9BAB2400000 PUSH1 0x2 SSTORE PUSH1 0x40 MLOAD DUP1 PUSH1 0x40 ADD PUSH1 0x40 MSTORE DUP1 PUSH1 0x11 DUP2 MSTORE PUSH1 0x20 ADD PUSH32 0x437572736F436F6D706C65746F4275726E000000000000000000000000000000 DUP2 MSTORE POP PUSH1 0x3 SWAP1 DUP1 MLOAD SWAP1 PUSH1 0x20 ADD SWAP1 PUSH3 0x5F SWAP3 SWAP2 SWAP1 PUSH3 0x111 JUMP JUMPDEST POP PUSH1 0x40 MLOAD DUP1 PUSH1 0x40 ADD PUSH1 0x40 MSTORE DUP1 PUSH1 0x3 DUP2 MSTORE PUSH1 0x20 ADD PUSH32 0x4343420000000000000000000000000000000000000000000000000000000000 DUP2 MSTORE POP PUSH1 0x4 SWAP1 DUP1 MLOAD SWAP1 PUSH1 0x20 ADD SWAP1 PUSH3 0xAD SWAP3 SWAP2 SWAP1 PUSH3 0x111 JUMP JUMPDEST POP PUSH1 0x12 PUSH1 0x5 SSTORE PUSH1 0xA PUSH1 0x6 SSTORE CALLVALUE DUP1 ISZERO PUSH3 0xC5 JUMPI PUSH1 0x0 DUP1 REVERT JUMPDEST POP PUSH1 0x2 SLOAD PUSH1 0x0 DUP1 CALLER PUSH20 0xFFFFFFFFFFFFFFFFFFFFFFFFFFFFFFFFFFFFFFFF AND PUSH20 0xFFFFFFFFFFFFFFFFFFFFFFFFFFFFFFFFFFFFFFFF AND DUP2 MSTORE PUSH1 0x20 ADD SWAP1 DUP2 MSTORE PUSH1 0x20 ADD PUSH1 0x0 KECCAK256 DUP2 SWAP1 SSTORE POP PUSH3 0x226 JUMP JUMPDEST DUP3 DUP1 SLOAD PUSH3 0x11F SWAP1 PUSH3 0x1C1 JUMP JUMPDEST SWAP1 PUSH1 0x0 MSTORE PUSH1 0x20 PUSH1 0x0 KECCAK256 SWAP1 PUSH1 0x1F ADD PUSH1 0x20 SWAP1 DIV DUP2 ADD SWAP3 DUP3 PUSH3 0x143 JUMPI PUSH1 0x0 DUP6 SSTORE PUSH3 0x18F JUMP JUMPDEST DUP3 PUSH1 0x1F LT PUSH3 0x15E JUMPI DUP1 MLOAD PUSH1 0xFF NOT AND DUP4 DUP1 ADD OR DUP6 SSTORE PUSH3 0x18F JUMP JUMPDEST DUP3 DUP1 ADD PUSH1 0x1 ADD DUP6 SSTORE DUP3 ISZERO PUSH3 0x18F JUMPI SWAP2 DUP3 ADD JUMPDEST DUP3 DUP2 GT ISZERO PUSH3 0x18E JUMPI DUP3 MLOAD DUP3 SSTORE SWAP2 PUSH1 0x20 ADD SWAP2 SWAP1 PUSH1 0x1 ADD SWAP1 PUSH3 0x171 JUMP JUMPDEST JUMPDEST POP SWAP1 POP PUSH3 0x19E SWAP2 SWAP1 PUSH3 0x1A2 JUMP JUMPDEST POP SWAP1 JUMP JUMPDEST JUMPDEST DUP1 DUP3 GT ISZERO PUSH3 0x1BD JUMPI PUSH1 0x0 DUP2 PUSH1 0x0 SWAP1 SSTORE POP PUSH1 0x1 ADD PUSH3 0x1A3 JUMP JUMPDEST POP SWAP1 JUMP JUMPDEST PUSH1 0x0 PUSH1 0x2 DUP3 DIV SWAP1 POP PUSH1 0x1 DUP3 AND DUP1 PUSH3 0x1DA JUMPI PUSH1 0x7F DUP3 AND SWAP2 POP JUMPDEST PUSH1 0x20 DUP3 LT DUP2 EQ ISZERO PUSH3 0x1F1 JUMPI PUSH3 0x1F0 PUSH3 0x1F7 JUMP JUMPDEST JUMPDEST POP SWAP2 SWAP1 POP JUMP JUMPDEST PUSH32 0x4E487B7100000000000000000000000000000000000000000000000000000000 PUSH1 0x0 MSTORE PUSH1 0x22 PUSH1 0x4 MSTORE PUSH1 0x24 PUSH1 0x0 REVERT JUMPDEST PUSH2 0xEF5 DUP1 PUSH3 0x236 PUSH1 0x0 CODECOPY PUSH1 0x0 RETURN INVALID PUSH1 0x80 PUSH1 0x40 MSTORE CALLVALUE DUP1 ISZERO PUSH2 0x10 JUMPI PUSH1 0x0 DUP1 REVERT JUMPDEST POP PUSH1 0x4 CALLDATASIZE LT PUSH2 0xA9 JUMPI PUSH1 0x0 CALLDATALOAD PUSH1 0xE0 SHR DUP1 PUSH4 0x313CE567 GT PUSH2 0x71 JUMPI DUP1 PUSH4 0x313CE567 EQ PUSH2 0x17A JUMPI DUP1 PUSH4 0x70A08231 EQ PUSH2 0x198 JUMPI DUP1 PUSH4 0x95D89B41 EQ PUSH2 0x1C8 JUMPI DUP1 PUSH4 0xA9059CBB EQ PUSH2 0x1E6 JUMPI DUP1 PUSH4 0xBED99850 EQ PUSH2 0x216 JUMPI DUP1 PUSH4 0xDD62ED3E EQ PUSH2 0x234 JUMPI PUSH2 0xA9 JUMP JUMPDEST DUP1 PUSH4 0x6FDDE03 EQ PUSH2 0xAE JUMPI DUP1 PUSH4 0x95EA7B3 EQ PUSH2 0xCC JUMPI DUP1 PUSH4 0x18160DDD EQ PUSH2 0xFC JUMPI DUP1 PUSH4 0x23B872DD EQ PUSH2 0x11A JUMPI DUP1 PUSH4 0x27E235E3 EQ PUSH2 0x14A JUMPI JUMPDEST PUSH1 0x0 DUP1 REVERT JUMPDEST PUSH2 0xB6 PUSH2 0x264 JUMP JUMPDEST PUSH1 0x40 MLOAD PUSH2 0xC3 SWAP2 SWAP1 PUSH2 0xAFA JUMP JUMPDEST PUSH1 0x40 MLOAD DUP1 SWAP2 SUB SWAP1 RETURN JUMPDEST PUSH2 0xE6 PUSH1 0x4 DUP1 CALLDATASIZE SUB DUP2 ADD SWAP1 PUSH2 0xE1 SWAP2 SWAP1 PUSH2 0xA06 JUMP JUMPDEST PUSH2 0x2F2 JUMP JUMPDEST PUSH1 0x40 MLOAD PUSH2 0xF3 SWAP2 SWAP1 PUSH2 0xADF JUMP JUMPDEST PUSH1 0x40 MLOAD DUP1 SWAP2 SUB SWAP1 RETURN JUMPDEST PUSH2 0x104 PUSH2 0x3E4 JUMP JUMPDEST PUSH1 0x40 MLOAD PUSH2 0x111 SWAP2 SWAP1 PUSH2 0xB5C JUMP JUMPDEST PUSH1 0x40 MLOAD DUP1 SWAP2 SUB SWAP1 RETURN JUMPDEST PUSH2 0x134 PUSH1 0x4 DUP1 CALLDATASIZE SUB DUP2 ADD SWAP1 PUSH2 0x12F SWAP2 SWAP1 PUSH2 0x9B7 JUMP JUMPDEST PUSH2 0x3EA JUMP JUMPDEST PUSH1 0x40 MLOAD PUSH2 0x141 SWAP2 SWAP1 PUSH2 0xADF JUMP JUMPDEST PUSH1 0x40 MLOAD DUP1 SWAP2 SUB SWAP1 RETURN JUMPDEST PUSH2 0x164 PUSH1 0x4 DUP1 CALLDATASIZE SUB DUP2 ADD SWAP1 PUSH2 0x15F SWAP2 SWAP1 PUSH2 0x952 JUMP JUMPDEST PUSH2 0x610 JUMP JUMPDEST PUSH1 0x40 MLOAD PUSH2 0x171 SWAP2 SWAP1 PUSH2 0xB5C JUMP JUMPDEST PUSH1 0x40 MLOAD DUP1 SWAP2 SUB SWAP1 RETURN JUMPDEST PUSH2 0x182 PUSH2 0x628 JUMP JUMPDEST PUSH1 0x40 MLOAD PUSH2 0x18F SWAP2 SWAP1 PUSH2 0xB5C JUMP JUMPDEST PUSH1 0x40 MLOAD DUP1 SWAP2 SUB SWAP1 RETURN JUMPDEST PUSH2 0x1B2 PUSH1 0x4 DUP1 CALLDATASIZE SUB DUP2 ADD SWAP1 PUSH2 0x1AD SWAP2 SWAP1 PUSH2 0x952 JUMP JUMPDEST PUSH2 0x62E JUMP JUMPDEST PUSH1 0x40 MLOAD PUSH2 0x1BF SWAP2 SWAP1 PUSH2 0xB5C JUMP JUMPDEST PUSH1 0x40 MLOAD DUP1 SWAP2 SUB SWAP1 RETURN JUMPDEST PUSH2 0x1D0 PUSH2 0x676 JUMP JUMPDEST PUSH1 0x40 MLOAD PUSH2 0x1DD SWAP2 SWAP1 PUSH2 0xAFA JUMP JUMPDEST PUSH1 0x40 MLOAD DUP1 SWAP2 SUB SWAP1 RETURN JUMPDEST PUSH2 0x200 PUSH1 0x4 DUP1 CALLDATASIZE SUB DUP2 ADD SWAP1 PUSH2 0x1FB SWAP2 SWAP1 PUSH2 0xA06 JUMP JUMPDEST PUSH2 0x704 JUMP JUMPDEST PUSH1 0x40 MLOAD PUSH2 0x20D SWAP2 SWAP1 PUSH2 0xADF JUMP JUMPDEST PUSH1 0x40 MLOAD DUP1 SWAP2 SUB SWAP1 RETURN JUMPDEST PUSH2 0x21E PUSH2 0x8FD JUMP JUMPDEST PUSH1 0x40 MLOAD PUSH2 0x22B SWAP2 SWAP1 PUSH2 0xB5C JUMP JUMPDEST PUSH1 0x40 MLOAD DUP1 SWAP2 SUB SWAP1 RETURN JUMPDEST PUSH2 0x24E PUSH1 0x4 DUP1 CALLDATASIZE SUB DUP2 ADD SWAP1 PUSH2 0x249 SWAP2 SWAP1 PUSH2 0x97B JUMP JUMPDEST PUSH2 0x903 JUMP JUMPDEST PUSH1 0x40 MLOAD PUSH2 0x25B SWAP2 SWAP1 PUSH2 0xB5C JUMP JUMPDEST PUSH1 0x40 MLOAD DUP1 SWAP2 SUB SWAP1 RETURN JUMPDEST PUSH1 0x3 DUP1 SLOAD PUSH2 0x271 SWAP1 PUSH2 0xD23 JUMP JUMPDEST DUP1 PUSH1 0x1F ADD PUSH1 0x20 DUP1 SWAP2 DIV MUL PUSH1 0x20 ADD PUSH1 0x40 MLOAD SWAP1 DUP2 ADD PUSH1 0x40 MSTORE DUP1 SWAP3 SWAP2 SWAP1 DUP2 DUP2 MSTORE PUSH1 0x20 ADD DUP3 DUP1 SLOAD PUSH2 0x29D SWAP1 PUSH2 0xD23 JUMP JUMPDEST DUP1 ISZERO PUSH2 0x2EA JUMPI DUP1 PUSH1 0x1F LT PUSH2 0x2BF JUMPI PUSH2 0x100 DUP1 DUP4 SLOAD DIV MUL DUP4 MSTORE SWAP2 PUSH1 0x20 ADD SWAP2 PUSH2 0x2EA JUMP JUMPDEST DUP3 ADD SWAP2 SWAP1 PUSH1 0x0 MSTORE PUSH1 0x20 PUSH1 0x0 KECCAK256 SWAP1 JUMPDEST DUP2 SLOAD DUP2 MSTORE SWAP1 PUSH1 0x1 ADD SWAP1 PUSH1 0x20 ADD DUP1 DUP4 GT PUSH2 0x2CD JUMPI DUP3 SWAP1 SUB PUSH1 0x1F AND DUP3 ADD SWAP2 JUMPDEST POP POP POP POP POP DUP2 JUMP JUMPDEST PUSH1 0x0 DUP2 PUSH1 0x1 PUSH1 0x0 CALLER PUSH20 0xFFFFFFFFFFFFFFFFFFFFFFFFFFFFFFFFFFFFFFFF AND PUSH20 0xFFFFFFFFFFFFFFFFFFFFFFFFFFFFFFFFFFFFFFFF AND DUP2 MSTORE PUSH1 0x20 ADD SWAP1 DUP2 MSTORE PUSH1 0x20 ADD PUSH1 0x0 KECCAK256 PUSH1 0x0 DUP6 PUSH20 0xFFFFFFFFFFFFFFFFFFFFFFFFFFFFFFFFFFFFFFFF AND PUSH20 0xFFFFFFFFFFFFFFFFFFFFFFFFFFFFFFFFFFFFFFFF AND DUP2 MSTORE PUSH1 0x20 ADD SWAP1 DUP2 MSTORE PUSH1 0x20 ADD PUSH1 0x0 KECCAK256 DUP2 SWAP1 SSTORE POP DUP3 PUSH20 0xFFFFFFFFFFFFFFFFFFFFFFFFFFFFFFFFFFFFFFFF AND CALLER PUSH20 0xFFFFFFFFFFFFFFFFFFFFFFFFFFFFFFFFFFFFFFFF AND PUSH32 0x8C5BE1E5EBEC7D5BD14F71427D1E84F3DD0314C0F7B2291E5B200AC8C7C3B925 DUP5 PUSH1 0x40 MLOAD PUSH2 0x3D2 SWAP2 SWAP1 PUSH2 0xB5C JUMP JUMPDEST PUSH1 0x40 MLOAD DUP1 SWAP2 SUB SWAP1 LOG3 PUSH1 0x1 SWAP1 POP SWAP3 SWAP2 POP POP JUMP JUMPDEST PUSH1 0x2 SLOAD DUP2 JUMP JUMPDEST PUSH1 0x0 DUP2 PUSH2 0x3F6 DUP6 PUSH2 0x62E JUMP JUMPDEST LT ISZERO PUSH2 0x437 JUMPI PUSH1 0x40 MLOAD PUSH32 0x8C379A000000000000000000000000000000000000000000000000000000000 DUP2 MSTORE PUSH1 0x4 ADD PUSH2 0x42E SWAP1 PUSH2 0xB3C JUMP JUMPDEST PUSH1 0x40 MLOAD DUP1 SWAP2 SUB SWAP1 REVERT JUMPDEST DUP2 PUSH1 0x1 PUSH1 0x0 DUP7 PUSH20 0xFFFFFFFFFFFFFFFFFFFFFFFFFFFFFFFFFFFFFFFF AND PUSH20 0xFFFFFFFFFFFFFFFFFFFFFFFFFFFFFFFFFFFFFFFF AND DUP2 MSTORE PUSH1 0x20 ADD SWAP1 DUP2 MSTORE PUSH1 0x20 ADD PUSH1 0x0 KECCAK256 PUSH1 0x0 CALLER PUSH20 0xFFFFFFFFFFFFFFFFFFFFFFFFFFFFFFFFFFFFFFFF AND PUSH20 0xFFFFFFFFFFFFFFFFFFFFFFFFFFFFFFFFFFFFFFFF AND DUP2 MSTORE PUSH1 0x20 ADD SWAP1 DUP2 MSTORE PUSH1 0x20 ADD PUSH1 0x0 KECCAK256 SLOAD LT ISZERO PUSH2 0x4F6 JUMPI PUSH1 0x40 MLOAD PUSH32 0x8C379A000000000000000000000000000000000000000000000000000000000 DUP2 MSTORE PUSH1 0x4 ADD PUSH2 0x4ED SWAP1 PUSH2 0xB1C JUMP JUMPDEST PUSH1 0x40 MLOAD DUP1 SWAP2 SUB SWAP1 REVERT JUMPDEST DUP2 PUSH1 0x0 DUP1 DUP6 PUSH20 0xFFFFFFFFFFFFFFFFFFFFFFFFFFFFFFFFFFFFFFFF AND PUSH20 0xFFFFFFFFFFFFFFFFFFFFFFFFFFFFFFFFFFFFFFFF AND DUP2 MSTORE PUSH1 0x20 ADD SWAP1 DUP2 MSTORE PUSH1 0x20 ADD PUSH1 0x0 KECCAK256 PUSH1 0x0 DUP3 DUP3 SLOAD PUSH2 0x544 SWAP2 SWAP1 PUSH2 0xB93 JUMP JUMPDEST SWAP3 POP POP DUP2 SWAP1 SSTORE POP DUP2 PUSH1 0x0 DUP1 DUP7 PUSH20 0xFFFFFFFFFFFFFFFFFFFFFFFFFFFFFFFFFFFFFFFF AND PUSH20 0xFFFFFFFFFFFFFFFFFFFFFFFFFFFFFFFFFFFFFFFF AND DUP2 MSTORE PUSH1 0x20 ADD SWAP1 DUP2 MSTORE PUSH1 0x20 ADD PUSH1 0x0 KECCAK256 PUSH1 0x0 DUP3 DUP3 SLOAD PUSH2 0x599 SWAP2 SWAP1 PUSH2 0xC74 JUMP JUMPDEST SWAP3 POP POP DUP2 SWAP1 SSTORE POP DUP3 PUSH20 0xFFFFFFFFFFFFFFFFFFFFFFFFFFFFFFFFFFFFFFFF AND DUP5 PUSH20 0xFFFFFFFFFFFFFFFFFFFFFFFFFFFFFFFFFFFFFFFF AND PUSH32 0xDDF252AD1BE2C89B69C2B068FC378DAA952BA7F163C4A11628F55A4DF523B3EF DUP5 PUSH1 0x40 MLOAD PUSH2 0x5FD SWAP2 SWAP1 PUSH2 0xB5C JUMP JUMPDEST PUSH1 0x40 MLOAD DUP1 SWAP2 SUB SWAP1 LOG3 PUSH1 0x1 SWAP1 POP SWAP4 SWAP3 POP POP POP JUMP JUMPDEST PUSH1 0x0 PUSH1 0x20 MSTORE DUP1 PUSH1 0x0 MSTORE PUSH1 0x40 PUSH1 0x0 KECCAK256 PUSH1 0x0 SWAP2 POP SWAP1 POP SLOAD DUP2 JUMP JUMPDEST PUSH1 0x5 SLOAD DUP2 JUMP JUMPDEST PUSH1 0x0 DUP1 PUSH1 0x0 DUP4 PUSH20 0xFFFFFFFFFFFFFFFFFFFFFFFFFFFFFFFFFFFFFFFF AND PUSH20 0xFFFFFFFFFFFFFFFFFFFFFFFFFFFFFFFFFFFFFFFF AND DUP2 MSTORE PUSH1 0x20 ADD SWAP1 DUP2 MSTORE PUSH1 0x20 ADD PUSH1 0x0 KECCAK256 SLOAD SWAP1 POP SWAP2 SWAP1 POP JUMP JUMPDEST PUSH1 0x4 DUP1 SLOAD PUSH2 0x683 SWAP1 PUSH2 0xD23 JUMP JUMPDEST DUP1 PUSH1 0x1F ADD PUSH1 0x20 DUP1 SWAP2 DIV MUL PUSH1 0x20 ADD PUSH1 0x40 MLOAD SWAP1 DUP2 ADD PUSH1 0x40 MSTORE DUP1 SWAP3 SWAP2 SWAP1 DUP2 DUP2 MSTORE PUSH1 0x20 ADD DUP3 DUP1 SLOAD PUSH2 0x6AF SWAP1 PUSH2 0xD23 JUMP JUMPDEST DUP1 ISZERO PUSH2 0x6FC JUMPI DUP1 PUSH1 0x1F LT PUSH2 0x6D1 JUMPI PUSH2 0x100 DUP1 DUP4 SLOAD DIV MUL DUP4 MSTORE SWAP2 PUSH1 0x20 ADD SWAP2 PUSH2 0x6FC JUMP JUMPDEST DUP3 ADD SWAP2 SWAP1 PUSH1 0x0 MSTORE PUSH1 0x20 PUSH1 0x0 KECCAK256 SWAP1 JUMPDEST DUP2 SLOAD DUP2 MSTORE SWAP1 PUSH1 0x1 ADD SWAP1 PUSH1 0x20 ADD DUP1 DUP4 GT PUSH2 0x6DF JUMPI DUP3 SWAP1 SUB PUSH1 0x1F AND DUP3 ADD SWAP2 JUMPDEST POP POP POP POP POP DUP2 JUMP JUMPDEST PUSH1 0x0 DUP2 PUSH2 0x710 CALLER PUSH2 0x62E JUMP JUMPDEST LT ISZERO PUSH2 0x751 JUMPI PUSH1 0x40 MLOAD PUSH32 0x8C379A000000000000000000000000000000000000000000000000000000000 DUP2 MSTORE PUSH1 0x4 ADD PUSH2 0x748 SWAP1 PUSH2 0xB3C JUMP JUMPDEST PUSH1 0x40 MLOAD DUP1 SWAP2 SUB SWAP1 REVERT JUMPDEST PUSH1 0x0 PUSH1 0x64 PUSH1 0x6 SLOAD DUP5 PUSH2 0x763 SWAP2 SWAP1 PUSH2 0xC1A JUMP JUMPDEST PUSH2 0x76D SWAP2 SWAP1 PUSH2 0xBE9 JUMP JUMPDEST SWAP1 POP DUP1 DUP4 PUSH2 0x77B SWAP2 SWAP1 PUSH2 0xC74 JUMP JUMPDEST PUSH1 0x0 DUP1 DUP7 PUSH20 0xFFFFFFFFFFFFFFFFFFFFFFFFFFFFFFFFFFFFFFFF AND PUSH20 0xFFFFFFFFFFFFFFFFFFFFFFFFFFFFFFFFFFFFFFFF AND DUP2 MSTORE PUSH1 0x20 ADD SWAP1 DUP2 MSTORE PUSH1 0x20 ADD PUSH1 0x0 KECCAK256 PUSH1 0x0 DUP3 DUP3 SLOAD PUSH2 0x7C8 SWAP2 SWAP1 PUSH2 0xB93 JUMP JUMPDEST SWAP3 POP POP DUP2 SWAP1 SSTORE POP DUP1 PUSH1 0x0 DUP1 PUSH20 0x1111111111111111111111111111111111111111 PUSH20 0xFFFFFFFFFFFFFFFFFFFFFFFFFFFFFFFFFFFFFFFF AND PUSH20 0xFFFFFFFFFFFFFFFFFFFFFFFFFFFFFFFFFFFFFFFF AND DUP2 MSTORE PUSH1 0x20 ADD SWAP1 DUP2 MSTORE PUSH1 0x20 ADD PUSH1 0x0 KECCAK256 PUSH1 0x0 DUP3 DUP3 SLOAD PUSH2 0x831 SWAP2 SWAP1 PUSH2 0xB93 JUMP JUMPDEST SWAP3 POP POP DUP2 SWAP1 SSTORE POP DUP3 PUSH1 0x0 DUP1 CALLER PUSH20 0xFFFFFFFFFFFFFFFFFFFFFFFFFFFFFFFFFFFFFFFF AND PUSH20 0xFFFFFFFFFFFFFFFFFFFFFFFFFFFFFFFFFFFFFFFF AND DUP2 MSTORE PUSH1 0x20 ADD SWAP1 DUP2 MSTORE PUSH1 0x20 ADD PUSH1 0x0 KECCAK256 PUSH1 0x0 DUP3 DUP3 SLOAD PUSH2 0x886 SWAP2 SWAP1 PUSH2 0xC74 JUMP JUMPDEST SWAP3 POP POP DUP2 SWAP1 SSTORE POP DUP4 PUSH20 0xFFFFFFFFFFFFFFFFFFFFFFFFFFFFFFFFFFFFFFFF AND CALLER PUSH20 0xFFFFFFFFFFFFFFFFFFFFFFFFFFFFFFFFFFFFFFFF AND PUSH32 0xDDF252AD1BE2C89B69C2B068FC378DAA952BA7F163C4A11628F55A4DF523B3EF DUP6 PUSH1 0x40 MLOAD PUSH2 0x8EA SWAP2 SWAP1 PUSH2 0xB5C JUMP JUMPDEST PUSH1 0x40 MLOAD DUP1 SWAP2 SUB SWAP1 LOG3 PUSH1 0x1 SWAP2 POP POP SWAP3 SWAP2 POP POP JUMP JUMPDEST PUSH1 0x6 SLOAD DUP2 JUMP JUMPDEST PUSH1 0x1 PUSH1 0x20 MSTORE DUP2 PUSH1 0x0 MSTORE PUSH1 0x40 PUSH1 0x0 KECCAK256 PUSH1 0x20 MSTORE DUP1 PUSH1 0x0 MSTORE PUSH1 0x40 PUSH1 0x0 KECCAK256 PUSH1 0x0 SWAP2 POP SWAP2 POP POP SLOAD DUP2 JUMP JUMPDEST PUSH1 0x0 DUP2 CALLDATALOAD SWAP1 POP PUSH2 0x937 DUP2 PUSH2 0xE91 JUMP JUMPDEST SWAP3 SWAP2 POP POP JUMP JUMPDEST PUSH1 0x0 DUP2 CALLDATALOAD SWAP1 POP PUSH2 0x94C DUP2 PUSH2 0xEA8 JUMP JUMPDEST SWAP3 SWAP2 POP POP JUMP JUMPDEST PUSH1 0x0 PUSH1 0x20 DUP3 DUP5 SUB SLT ISZERO PUSH2 0x964 JUMPI PUSH1 0x0 DUP1 REVERT JUMPDEST PUSH1 0x0 PUSH2 0x972 DUP5 DUP3 DUP6 ADD PUSH2 0x928 JUMP JUMPDEST SWAP2 POP POP SWAP3 SWAP2 POP POP JUMP JUMPDEST PUSH1 0x0 DUP1 PUSH1 0x40 DUP4 DUP6 SUB SLT ISZERO PUSH2 0x98E JUMPI PUSH1 0x0 DUP1 REVERT JUMPDEST PUSH1 0x0 PUSH2 0x99C DUP6 DUP3 DUP7 ADD PUSH2 0x928 JUMP JUMPDEST SWAP3 POP POP PUSH1 0x20 PUSH2 0x9AD DUP6 DUP3 DUP7 ADD PUSH2 0x928 JUMP JUMPDEST SWAP2 POP POP SWAP3 POP SWAP3 SWAP1 POP JUMP JUMPDEST PUSH1 0x0 DUP1 PUSH1 0x0 PUSH1 0x60 DUP5 DUP7 SUB SLT ISZERO PUSH2 0x9CC JUMPI PUSH1 0x0 DUP1 REVERT JUMPDEST PUSH1 0x0 PUSH2 0x9DA DUP7 DUP3 DUP8 ADD PUSH2 0x928 JUMP JUMPDEST SWAP4 POP POP PUSH1 0x20 PUSH2 0x9EB DUP7 DUP3 DUP8 ADD PUSH2 0x928 JUMP JUMPDEST SWAP3 POP POP PUSH1 0x40 PUSH2 0x9FC DUP7 DUP3 DUP8 ADD PUSH2 0x93D JUMP JUMPDEST SWAP2 POP POP SWAP3 POP SWAP3 POP SWAP3 JUMP JUMPDEST PUSH1 0x0 DUP1 PUSH1 0x40 DUP4 DUP6 SUB SLT ISZERO PUSH2 0xA19 JUMPI PUSH1 0x0 DUP1 REVERT JUMPDEST PUSH1 0x0 PUSH2 0xA27 DUP6 DUP3 DUP7 ADD PUSH2 0x928 JUMP JUMPDEST SWAP3 POP POP PUSH1 0x20 PUSH2 0xA38 DUP6 DUP3 DUP7 ADD PUSH2 0x93D JUMP JUMPDEST SWAP2 POP POP SWAP3 POP SWAP3 SWAP1 POP JUMP JUMPDEST PUSH2 0xA4B DUP2 PUSH2 0xCBA JUMP JUMPDEST DUP3 MSTORE POP POP JUMP JUMPDEST PUSH1 0x0 PUSH2 0xA5C DUP3 PUSH2 0xB77 JUMP JUMPDEST PUSH2 0xA66 DUP2 DUP6 PUSH2 0xB82 JUMP JUMPDEST SWAP4 POP PUSH2 0xA76 DUP2 DUP6 PUSH1 0x20 DUP7 ADD PUSH2 0xCF0 JUMP JUMPDEST PUSH2 0xA7F DUP2 PUSH2 0xDE2 JUMP JUMPDEST DUP5 ADD SWAP2 POP POP SWAP3 SWAP2 POP POP JUMP JUMPDEST PUSH1 0x0 PUSH2 0xA97 PUSH1 0x21 DUP4 PUSH2 0xB82 JUMP JUMPDEST SWAP2 POP PUSH2 0xAA2 DUP3 PUSH2 0xDF3 JUMP JUMPDEST PUSH1 0x40 DUP3 ADD SWAP1 POP SWAP2 SWAP1 POP JUMP JUMPDEST PUSH1 0x0 PUSH2 0xABA PUSH1 0x24 DUP4 PUSH2 0xB82 JUMP JUMPDEST SWAP2 POP PUSH2 0xAC5 DUP3 PUSH2 0xE42 JUMP JUMPDEST PUSH1 0x40 DUP3 ADD SWAP1 POP SWAP2 SWAP1 POP JUMP JUMPDEST PUSH2 0xAD9 DUP2 PUSH2 0xCE6 JUMP JUMPDEST DUP3 MSTORE POP POP JUMP JUMPDEST PUSH1 0x0 PUSH1 0x20 DUP3 ADD SWAP1 POP PUSH2 0xAF4 PUSH1 0x0 DUP4 ADD DUP5 PUSH2 0xA42 JUMP JUMPDEST SWAP3 SWAP2 POP POP JUMP JUMPDEST PUSH1 0x0 PUSH1 0x20 DUP3 ADD SWAP1 POP DUP2 DUP2 SUB PUSH1 0x0 DUP4 ADD MSTORE PUSH2 0xB14 DUP2 DUP5 PUSH2 0xA51 JUMP JUMPDEST SWAP1 POP SWAP3 SWAP2 POP POP JUMP JUMPDEST PUSH1 0x0 PUSH1 0x20 DUP3 ADD SWAP1 POP DUP2 DUP2 SUB PUSH1 0x0 DUP4 ADD MSTORE PUSH2 0xB35 DUP2 PUSH2 0xA8A JUMP JUMPDEST SWAP1 POP SWAP2 SWAP1 POP JUMP JUMPDEST PUSH1 0x0 PUSH1 0x20 DUP3 ADD SWAP1 POP DUP2 DUP2 SUB PUSH1 0x0 DUP4 ADD MSTORE PUSH2 0xB55 DUP2 PUSH2 0xAAD JUMP JUMPDEST SWAP1 POP SWAP2 SWAP1 POP JUMP JUMPDEST PUSH1 0x0 PUSH1 0x20 DUP3 ADD SWAP1 POP PUSH2 0xB71 PUSH1 0x0 DUP4 ADD DUP5 PUSH2 0xAD0 JUMP JUMPDEST SWAP3 SWAP2 POP POP JUMP JUMPDEST PUSH1 0x0 DUP2 MLOAD SWAP1 POP SWAP2 SWAP1 POP JUMP JUMPDEST PUSH1 0x0 DUP3 DUP3 MSTORE PUSH1 0x20 DUP3 ADD SWAP1 POP SWAP3 SWAP2 POP POP JUMP JUMPDEST PUSH1 0x0 PUSH2 0xB9E DUP3 PUSH2 0xCE6 JUMP JUMPDEST SWAP2 POP PUSH2 0xBA9 DUP4 PUSH2 0xCE6 JUMP JUMPDEST SWAP3 POP DUP3 PUSH32 0xFFFFFFFFFFFFFFFFFFFFFFFFFFFFFFFFFFFFFFFFFFFFFFFFFFFFFFFFFFFFFFFF SUB DUP3 GT ISZERO PUSH2 0xBDE JUMPI PUSH2 0xBDD PUSH2 0xD55 JUMP JUMPDEST JUMPDEST DUP3 DUP3 ADD SWAP1 POP SWAP3 SWAP2 POP POP JUMP JUMPDEST PUSH1 0x0 PUSH2 0xBF4 DUP3 PUSH2 0xCE6 JUMP JUMPDEST SWAP2 POP PUSH2 0xBFF DUP4 PUSH2 0xCE6 JUMP JUMPDEST SWAP3 POP DUP3 PUSH2 0xC0F JUMPI PUSH2 0xC0E PUSH2 0xD84 JUMP JUMPDEST JUMPDEST DUP3 DUP3 DIV SWAP1 POP SWAP3 SWAP2 POP POP JUMP JUMPDEST PUSH1 0x0 PUSH2 0xC25 DUP3 PUSH2 0xCE6 JUMP JUMPDEST SWAP2 POP PUSH2 0xC30 DUP4 PUSH2 0xCE6 JUMP JUMPDEST SWAP3 POP DUP2 PUSH32 0xFFFFFFFFFFFFFFFFFFFFFFFFFFFFFFFFFFFFFFFFFFFFFFFFFFFFFFFFFFFFFFFF DIV DUP4 GT DUP3 ISZERO ISZERO AND ISZERO PUSH2 0xC69 JUMPI PUSH2 0xC68 PUSH2 0xD55 JUMP JUMPDEST JUMPDEST DUP3 DUP3 MUL SWAP1 POP SWAP3 SWAP2 POP POP JUMP JUMPDEST PUSH1 0x0 PUSH2 0xC7F DUP3 PUSH2 0xCE6 JUMP JUMPDEST SWAP2 POP PUSH2 0xC8A DUP4 PUSH2 0xCE6 JUMP JUMPDEST SWAP3 POP DUP3 DUP3 LT ISZERO PUSH2 0xC9D JUMPI PUSH2 0xC9C PUSH2 0xD55 JUMP JUMPDEST JUMPDEST DUP3 DUP3 SUB SWAP1 POP SWAP3 SWAP2 POP POP JUMP JUMPDEST PUSH1 0x0 PUSH2 0xCB3 DUP3 PUSH2 0xCC6 JUMP JUMPDEST SWAP1 POP SWAP2 SWAP1 POP JUMP JUMPDEST PUSH1 0x0 DUP2 ISZERO ISZERO SWAP1 POP SWAP2 SWAP1 POP JUMP JUMPDEST PUSH1 0x0 PUSH20 0xFFFFFFFFFFFFFFFFFFFFFFFFFFFFFFFFFFFFFFFF DUP3 AND SWAP1 POP SWAP2 SWAP1 POP JUMP JUMPDEST PUSH1 0x0 DUP2 SWAP1 POP SWAP2 SWAP1 POP JUMP JUMPDEST PUSH1 0x0 JUMPDEST DUP4 DUP2 LT ISZERO PUSH2 0xD0E JUMPI DUP1 DUP3 ADD MLOAD DUP2 DUP5 ADD MSTORE PUSH1 0x20 DUP2 ADD SWAP1 POP PUSH2 0xCF3 JUMP JUMPDEST DUP4 DUP2 GT ISZERO PUSH2 0xD1D JUMPI PUSH1 0x0 DUP5 DUP5 ADD MSTORE JUMPDEST POP POP POP POP JUMP JUMPDEST PUSH1 0x0 PUSH1 0x2 DUP3 DIV SWAP1 POP PUSH1 0x1 DUP3 AND DUP1 PUSH2 0xD3B JUMPI PUSH1 0x7F DUP3 AND SWAP2 POP JUMPDEST PUSH1 0x20 DUP3 LT DUP2 EQ ISZERO PUSH2 0xD4F JUMPI PUSH2 0xD4E PUSH2 0xDB3 JUMP JUMPDEST JUMPDEST POP SWAP2 SWAP1 POP JUMP JUMPDEST PUSH32 0x4E487B7100000000000000000000000000000000000000000000000000000000 PUSH1 0x0 MSTORE PUSH1 0x11 PUSH1 0x4 MSTORE PUSH1 0x24 PUSH1 0x0 REVERT JUMPDEST PUSH32 0x4E487B7100000000000000000000000000000000000000000000000000000000 PUSH1 0x0 MSTORE PUSH1 0x12 PUSH1 0x4 MSTORE PUSH1 0x24 PUSH1 0x0 REVERT JUMPDEST PUSH32 0x4E487B7100000000000000000000000000000000000000000000000000000000 PUSH1 0x0 MSTORE PUSH1 0x22 PUSH1 0x4 MSTORE PUSH1 0x24 PUSH1 0x0 REVERT JUMPDEST PUSH1 0x0 PUSH1 0x1F NOT PUSH1 0x1F DUP4 ADD AND SWAP1 POP SWAP2 SWAP1 POP JUMP JUMPDEST PUSH32 0x53656D207065726D697373616F2028616C6C6F77616E636520746F6F206C6F77 PUSH1 0x0 DUP3 ADD MSTORE PUSH32 0x2900000000000000000000000000000000000000000000000000000000000000 PUSH1 0x20 DUP3 ADD MSTORE POP JUMP JUMPDEST PUSH32 0x53616C646F20696E737566696369656E7465202862616C616E636520746F6F20 PUSH1 0x0 DUP3 ADD MSTORE PUSH32 0x6C6F772900000000000000000000000000000000000000000000000000000000 PUSH1 0x20 DUP3 ADD MSTORE POP JUMP JUMPDEST PUSH2 0xE9A DUP2 PUSH2 0xCA8 JUMP JUMPDEST DUP2 EQ PUSH2 0xEA5 JUMPI PUSH1 0x0 DUP1 REVERT JUMPDEST POP JUMP JUMPDEST PUSH2 0xEB1 DUP2 PUSH2 0xCE6 JUMP JUMPDEST DUP2 EQ PUSH2 0xEBC JUMPI PUSH1 0x0 DUP1 REVERT JUMPDEST POP JUMP INVALID LOG2 PUSH5 0x6970667358 0x22 SLT KECCAK256 SLT 0xED 0x21 0xE0 0xE4 0xF6 RETURN LOG3 0xE1 NUMBER 0xC5 PUSH11 0x23A7C789D51F73732099EF 0xD 0x4B OR 0xE9 MSTORE PUSH18 0xAB512464736F6C6343000802003300000000 "
				},
				"gasEstimates": {
					"creation": {
						"codeDepositCost": "765800",
						"executionCost": "infinite",
						"totalCost": "infinite"
					},
					"external": {
						"allowance(address,address)": "infinite",
						"approve(address,uint256)": "infinite",
						"balanceOf(address)": "1563",
						"balances(address)": "1603",
						"burnRate()": "1217",
						"decimals()": "1129",
						"name()": "infinite",
						"symbol()": "infinite",
						"totalSupply()": "1174",
						"transfer(address,uint256)": "infinite",
						"transferFrom(address,address,uint256)": "infinite"
					}
				},
				"methodIdentifiers": {
					"allowance(address,address)": "dd62ed3e",
					"approve(address,uint256)": "095ea7b3",
					"balanceOf(address)": "70a08231",
					"balances(address)": "27e235e3",
					"burnRate()": "bed99850",
					"decimals()": "313ce567",
					"name()": "06fdde03",
					"symbol()": "95d89b41",
					"totalSupply()": "18160ddd",
					"transfer(address,uint256)": "a9059cbb",
					"transferFrom(address,address,uint256)": "23b872dd"
				}
			},
			"storageLayout": {
				"storage": [
					{
						"astId": 5,
						"contract": "contracts/TokenBurn.sol:Token",
						"label": "balances",
						"offset": 0,
						"slot": "0",
						"type": "t_mapping(t_address,t_uint256)"
					},
					{
						"astId": 11,
						"contract": "contracts/TokenBurn.sol:Token",
						"label": "allowance",
						"offset": 0,
						"slot": "1",
						"type": "t_mapping(t_address,t_mapping(t_address,t_uint256))"
					},
					{
						"astId": 18,
						"contract": "contracts/TokenBurn.sol:Token",
						"label": "totalSupply",
						"offset": 0,
						"slot": "2",
						"type": "t_uint256"
					},
					{
						"astId": 21,
						"contract": "contracts/TokenBurn.sol:Token",
						"label": "name",
						"offset": 0,
						"slot": "3",
						"type": "t_string_storage"
					},
					{
						"astId": 24,
						"contract": "contracts/TokenBurn.sol:Token",
						"label": "symbol",
						"offset": 0,
						"slot": "4",
						"type": "t_string_storage"
					},
					{
						"astId": 27,
						"contract": "contracts/TokenBurn.sol:Token",
						"label": "decimals",
						"offset": 0,
						"slot": "5",
						"type": "t_uint256"
					},
					{
						"astId": 30,
						"contract": "contracts/TokenBurn.sol:Token",
						"label": "burnRate",
						"offset": 0,
						"slot": "6",
						"type": "t_uint256"
					}
				],
				"types": {
					"t_address": {
						"encoding": "inplace",
						"label": "address",
						"numberOfBytes": "20"
					},
					"t_mapping(t_address,t_mapping(t_address,t_uint256))": {
						"encoding": "mapping",
						"key": "t_address",
						"label": "mapping(address => mapping(address => uint256))",
						"numberOfBytes": "32",
						"value": "t_mapping(t_address,t_uint256)"
					},
					"t_mapping(t_address,t_uint256)": {
						"encoding": "mapping",
						"key": "t_address",
						"label": "mapping(address => uint256)",
						"numberOfBytes": "32",
						"value": "t_uint256"
					},
					"t_string_storage": {
						"encoding": "bytes",
						"label": "string",
						"numberOfBytes": "32"
					},
					"t_uint256": {
						"encoding": "inplace",
						"label": "uint256",
						"numberOfBytes": "32"
					}
				}
			},
			"userdoc": {
				"kind": "user",
				"methods": {},
				"version": 1
			}
		}
	}
}